{
  "_format": "hh-sol-artifact-1",
  "contractName": "Box",
  "sourceName": "contracts/Box.sol",
  "abi": [
    {
      "inputs": [],
      "name": "ApprovalCallerNotOwnerNorApproved",
      "type": "error"
    },
    {
      "inputs": [],
      "name": "ApprovalQueryForNonexistentToken",
      "type": "error"
    },
    {
      "inputs": [],
      "name": "ApprovalToCurrentOwner",
      "type": "error"
    },
    {
      "inputs": [],
      "name": "ApproveToCaller",
      "type": "error"
    },
    {
      "inputs": [],
      "name": "BalanceQueryForZeroAddress",
      "type": "error"
    },
    {
      "inputs": [],
      "name": "MintToZeroAddress",
      "type": "error"
    },
    {
      "inputs": [],
      "name": "MintZeroQuantity",
      "type": "error"
    },
    {
      "inputs": [],
      "name": "OwnerQueryForNonexistentToken",
      "type": "error"
    },
    {
      "inputs": [],
      "name": "TransferCallerNotOwnerNorApproved",
      "type": "error"
    },
    {
      "inputs": [],
      "name": "TransferFromIncorrectOwner",
      "type": "error"
    },
    {
      "inputs": [],
      "name": "TransferToNonERC721ReceiverImplementer",
      "type": "error"
    },
    {
      "inputs": [],
      "name": "TransferToZeroAddress",
      "type": "error"
    },
    {
      "inputs": [],
      "name": "URIQueryForNonexistentToken",
      "type": "error"
    },
    {
      "anonymous": false,
      "inputs": [
        {
          "indexed": true,
          "internalType": "address",
          "name": "owner",
          "type": "address"
        },
        {
          "indexed": true,
          "internalType": "address",
          "name": "approved",
          "type": "address"
        },
        {
          "indexed": true,
          "internalType": "uint256",
          "name": "tokenId",
          "type": "uint256"
        }
      ],
      "name": "Approval",
      "type": "event"
    },
    {
      "anonymous": false,
      "inputs": [
        {
          "indexed": true,
          "internalType": "address",
          "name": "owner",
          "type": "address"
        },
        {
          "indexed": true,
          "internalType": "address",
          "name": "operator",
          "type": "address"
        },
        {
          "indexed": false,
          "internalType": "bool",
          "name": "approved",
          "type": "bool"
        }
      ],
      "name": "ApprovalForAll",
      "type": "event"
    },
    {
      "anonymous": false,
      "inputs": [
        {
          "indexed": true,
          "internalType": "address",
          "name": "previousOwner",
          "type": "address"
        },
        {
          "indexed": true,
          "internalType": "address",
          "name": "newOwner",
          "type": "address"
        }
      ],
      "name": "OwnershipTransferred",
      "type": "event"
    },
    {
      "anonymous": false,
      "inputs": [
        {
          "indexed": true,
          "internalType": "address",
          "name": "from",
          "type": "address"
        },
        {
          "indexed": true,
          "internalType": "address",
          "name": "to",
          "type": "address"
        },
        {
          "indexed": true,
          "internalType": "uint256",
          "name": "tokenId",
          "type": "uint256"
        }
      ],
      "name": "Transfer",
      "type": "event"
    },
    {
      "inputs": [],
      "name": "MAX_PUBLIC_MINT",
      "outputs": [
        {
          "internalType": "uint256",
          "name": "",
          "type": "uint256"
        }
      ],
      "stateMutability": "view",
      "type": "function"
    },
    {
      "inputs": [],
      "name": "MAX_SUPPLY",
      "outputs": [
        {
          "internalType": "uint256",
          "name": "",
          "type": "uint256"
        }
      ],
      "stateMutability": "view",
      "type": "function"
    },
    {
      "inputs": [],
      "name": "MAX_WHITELIST_MINT",
      "outputs": [
        {
          "internalType": "uint256",
          "name": "",
          "type": "uint256"
        }
      ],
      "stateMutability": "view",
      "type": "function"
    },
    {
      "inputs": [],
      "name": "PUBLIC_SALE_PRICE",
      "outputs": [
        {
          "internalType": "uint256",
          "name": "",
          "type": "uint256"
        }
      ],
      "stateMutability": "view",
      "type": "function"
    },
    {
      "inputs": [],
      "name": "WHITELIST_SALE_PRICE",
      "outputs": [
        {
          "internalType": "uint256",
          "name": "",
          "type": "uint256"
        }
      ],
      "stateMutability": "view",
      "type": "function"
    },
    {
      "inputs": [
        {
          "internalType": "address",
          "name": "to",
          "type": "address"
        },
        {
          "internalType": "uint256",
          "name": "tokenId",
          "type": "uint256"
        }
      ],
      "name": "approve",
      "outputs": [],
      "stateMutability": "nonpayable",
      "type": "function"
    },
    {
      "inputs": [
        {
          "internalType": "address",
          "name": "owner",
          "type": "address"
        }
      ],
      "name": "balanceOf",
      "outputs": [
        {
          "internalType": "uint256",
          "name": "",
          "type": "uint256"
        }
      ],
      "stateMutability": "view",
      "type": "function"
    },
    {
      "inputs": [
        {
          "internalType": "uint256",
          "name": "tokenId",
          "type": "uint256"
        }
      ],
      "name": "burn",
      "outputs": [],
      "stateMutability": "nonpayable",
      "type": "function"
    },
    {
      "inputs": [
        {
          "internalType": "uint256",
          "name": "_quantity",
          "type": "uint256"
        },
        {
          "internalType": "uint256[]",
          "name": "tokenIds",
          "type": "uint256[]"
        }
      ],
      "name": "burnBatch",
      "outputs": [],
      "stateMutability": "nonpayable",
      "type": "function"
    },
    {
      "inputs": [
        {
          "internalType": "uint256",
          "name": "tokenId",
          "type": "uint256"
        }
      ],
      "name": "getApproved",
      "outputs": [
        {
          "internalType": "address",
          "name": "",
          "type": "address"
        }
      ],
      "stateMutability": "view",
      "type": "function"
    },
    {
      "inputs": [],
      "name": "getJackAddress",
      "outputs": [
        {
          "internalType": "address",
          "name": "",
          "type": "address"
        }
      ],
      "stateMutability": "view",
      "type": "function"
    },
    {
      "inputs": [],
      "name": "getMerkleRoot",
      "outputs": [
        {
          "internalType": "bytes32",
          "name": "",
          "type": "bytes32"
        }
      ],
      "stateMutability": "view",
      "type": "function"
    },
    {
      "inputs": [],
      "name": "initialize",
      "outputs": [],
      "stateMutability": "nonpayable",
      "type": "function"
    },
    {
      "inputs": [
        {
          "internalType": "address",
          "name": "owner",
          "type": "address"
        },
        {
          "internalType": "address",
          "name": "operator",
          "type": "address"
        }
      ],
      "name": "isApprovedForAll",
      "outputs": [
        {
          "internalType": "bool",
          "name": "",
          "type": "bool"
        }
      ],
      "stateMutability": "view",
      "type": "function"
    },
    {
      "inputs": [],
      "name": "isRevealed",
      "outputs": [
        {
          "internalType": "bool",
          "name": "",
          "type": "bool"
        }
      ],
      "stateMutability": "view",
      "type": "function"
    },
    {
      "inputs": [
        {
          "internalType": "uint256",
          "name": "_quantity",
          "type": "uint256"
        }
      ],
      "name": "mint",
      "outputs": [],
      "stateMutability": "payable",
      "type": "function"
    },
    {
      "inputs": [],
      "name": "name",
      "outputs": [
        {
          "internalType": "string",
          "name": "",
          "type": "string"
        }
      ],
      "stateMutability": "view",
      "type": "function"
    },
    {
      "inputs": [],
      "name": "owner",
      "outputs": [
        {
          "internalType": "address",
          "name": "",
          "type": "address"
        }
      ],
      "stateMutability": "view",
      "type": "function"
    },
    {
      "inputs": [
        {
          "internalType": "uint256",
          "name": "tokenId",
          "type": "uint256"
        }
      ],
      "name": "ownerOf",
      "outputs": [
        {
          "internalType": "address",
          "name": "",
          "type": "address"
        }
      ],
      "stateMutability": "view",
      "type": "function"
    },
    {
      "inputs": [],
      "name": "publicSale",
      "outputs": [
        {
          "internalType": "bool",
          "name": "",
          "type": "bool"
        }
      ],
      "stateMutability": "view",
      "type": "function"
    },
    {
      "inputs": [],
      "name": "renounceOwnership",
      "outputs": [],
      "stateMutability": "nonpayable",
      "type": "function"
    },
    {
      "inputs": [
        {
          "internalType": "address",
          "name": "from",
          "type": "address"
        },
        {
          "internalType": "address",
          "name": "to",
          "type": "address"
        },
        {
          "internalType": "uint256",
          "name": "tokenId",
          "type": "uint256"
        }
      ],
      "name": "safeTransferFrom",
      "outputs": [],
      "stateMutability": "nonpayable",
      "type": "function"
    },
    {
      "inputs": [
        {
          "internalType": "address",
          "name": "from",
          "type": "address"
        },
        {
          "internalType": "address",
          "name": "to",
          "type": "address"
        },
        {
          "internalType": "uint256",
          "name": "tokenId",
          "type": "uint256"
        },
        {
          "internalType": "bytes",
          "name": "_data",
          "type": "bytes"
        }
      ],
      "name": "safeTransferFrom",
      "outputs": [],
      "stateMutability": "nonpayable",
      "type": "function"
    },
    {
      "inputs": [
        {
          "internalType": "address",
          "name": "operator",
          "type": "address"
        },
        {
          "internalType": "bool",
          "name": "approved",
          "type": "bool"
        }
      ],
      "name": "setApprovalForAll",
      "outputs": [],
      "stateMutability": "nonpayable",
      "type": "function"
    },
    {
      "inputs": [
        {
          "internalType": "address",
          "name": "_jack_address",
          "type": "address"
        }
      ],
      "name": "setJackAddress",
      "outputs": [],
      "stateMutability": "nonpayable",
      "type": "function"
    },
    {
      "inputs": [
        {
          "internalType": "bytes32",
          "name": "_merkleRoot",
          "type": "bytes32"
        }
      ],
      "name": "setMerkleRoot",
      "outputs": [],
      "stateMutability": "nonpayable",
      "type": "function"
    },
    {
      "inputs": [
        {
          "internalType": "string",
          "name": "_baseTokenUri",
          "type": "string"
        }
      ],
      "name": "setTokenUri",
      "outputs": [],
      "stateMutability": "nonpayable",
      "type": "function"
    },
    {
      "inputs": [
        {
          "internalType": "bytes4",
          "name": "interfaceId",
          "type": "bytes4"
        }
      ],
      "name": "supportsInterface",
      "outputs": [
        {
          "internalType": "bool",
          "name": "",
          "type": "bool"
        }
      ],
      "stateMutability": "view",
      "type": "function"
    },
    {
      "inputs": [],
      "name": "symbol",
      "outputs": [
        {
          "internalType": "string",
          "name": "",
          "type": "string"
        }
      ],
      "stateMutability": "view",
      "type": "function"
    },
    {
      "inputs": [],
      "name": "togglePublicSale",
      "outputs": [],
      "stateMutability": "nonpayable",
      "type": "function"
    },
    {
      "inputs": [],
      "name": "toggleReveal",
      "outputs": [],
      "stateMutability": "nonpayable",
      "type": "function"
    },
    {
      "inputs": [],
      "name": "toggleWhiteListSale",
      "outputs": [],
      "stateMutability": "nonpayable",
      "type": "function"
    },
    {
      "inputs": [
        {
          "internalType": "address",
          "name": "owner",
          "type": "address"
        }
      ],
      "name": "tokenIdsOfOwner",
      "outputs": [
        {
          "internalType": "uint256[]",
          "name": "",
          "type": "uint256[]"
        }
      ],
      "stateMutability": "view",
      "type": "function"
    },
    {
      "inputs": [
        {
          "internalType": "uint256",
          "name": "tokenId",
          "type": "uint256"
        }
      ],
      "name": "tokenURI",
      "outputs": [
        {
          "internalType": "string",
          "name": "",
          "type": "string"
        }
      ],
      "stateMutability": "view",
      "type": "function"
    },
    {
      "inputs": [
        {
          "internalType": "address",
          "name": "owner",
          "type": "address"
        }
      ],
      "name": "tokensBurntBy",
      "outputs": [
        {
          "internalType": "uint256",
          "name": "",
          "type": "uint256"
        }
      ],
      "stateMutability": "view",
      "type": "function"
    },
    {
      "inputs": [
        {
          "internalType": "address",
          "name": "owner",
          "type": "address"
        }
      ],
      "name": "tokensMintedtBy",
      "outputs": [
        {
          "internalType": "uint256",
          "name": "",
          "type": "uint256"
        }
      ],
      "stateMutability": "view",
      "type": "function"
    },
    {
      "inputs": [],
      "name": "totalSupply",
      "outputs": [
        {
          "internalType": "uint256",
          "name": "",
          "type": "uint256"
        }
      ],
      "stateMutability": "view",
      "type": "function"
    },
    {
      "inputs": [
        {
          "internalType": "address",
          "name": "from",
          "type": "address"
        },
        {
          "internalType": "address",
          "name": "to",
          "type": "address"
        },
        {
          "internalType": "uint256",
          "name": "tokenId",
          "type": "uint256"
        }
      ],
      "name": "transferFrom",
      "outputs": [],
      "stateMutability": "nonpayable",
      "type": "function"
    },
    {
      "inputs": [
        {
          "internalType": "address",
          "name": "newOwner",
          "type": "address"
        }
      ],
      "name": "transferOwnership",
      "outputs": [],
      "stateMutability": "nonpayable",
      "type": "function"
    },
    {
      "inputs": [],
      "name": "version",
      "outputs": [
        {
          "internalType": "string",
          "name": "",
          "type": "string"
        }
      ],
      "stateMutability": "pure",
      "type": "function"
    },
    {
      "inputs": [],
      "name": "whiteListSale",
      "outputs": [
        {
          "internalType": "bool",
          "name": "",
          "type": "bool"
        }
      ],
      "stateMutability": "view",
      "type": "function"
    },
    {
      "inputs": [
        {
          "internalType": "bytes32[]",
          "name": "_merkleProof",
          "type": "bytes32[]"
        },
        {
          "internalType": "uint256",
          "name": "_quantity",
          "type": "uint256"
        }
      ],
      "name": "whitelistMint",
      "outputs": [],
      "stateMutability": "payable",
      "type": "function"
    },
    {
      "inputs": [],
      "name": "withdraw",
      "outputs": [],
      "stateMutability": "nonpayable",
      "type": "function"
    }
  ],
  "bytecode": "0x608060405234801561001057600080fd5b50615314806100206000396000f3fe60806040526004361061025c5760003560e01c806365f13097116101445780639f26c10d116100b6578063c08dfd3c1161007a578063c08dfd3c14610882578063c87b56dd146108ad578063df33b587146108ea578063e222c7f914610913578063e985e9c51461092a578063f2fde38b146109675761025c565b80639f26c10d146107ac578063a0712d68146107e9578063a22cb46514610805578063b88d4fde1461082e578063bc912e1a146108575761025c565b80638129fc1c116101085780638129fc1c146106c057806386a173ee146106d75780638bb64a8c146107025780638da5cb5b1461071957806395d89b41146107445780639e59e5981461076f5761025c565b806365f13097146105db5780636a5468fb1461060657806370a0823114610643578063715018a6146106805780637cb64759146106975761025c565b806332cb6b0c116101dd57806349590657116101a157806349590657146104dd57806354214f691461050857806354fd4d501461053357806357574fa21461055e5780635b8ad429146105875780636352211e1461059e5761025c565b806332cb6b0c1461041e57806333bc1c5c146104495780633ccfd60b1461047457806342842e0e1461048b57806342966c68146104b45761025c565b8063095ea7b311610224578063095ea7b31461035a57806318160ddd1461038357806323b872dd146103ae57806324aba799146103d75780632904e6d9146104025761025c565b806301ffc9a7146102615780630675b7c61461029e57806306fdde03146102c757806307e89ec0146102f2578063081812fc1461031d575b600080fd5b34801561026d57600080fd5b50610288600480360381019061028391906141c7565b610990565b6040516102959190614750565b60405180910390f35b3480156102aa57600080fd5b506102c560048036038101906102c09190614219565b610a72565b005b3480156102d357600080fd5b506102dc610b08565b6040516102e99190614786565b60405180910390f35b3480156102fe57600080fd5b50610307610b9a565b6040516103149190614988565b60405180910390f35b34801561032957600080fd5b50610344600480360381019061033f919061425a565b610ba4565b604051610351919061469e565b60405180910390f35b34801561036657600080fd5b50610381600480360381019061037c919061410e565b610c20565b005b34801561038f57600080fd5b50610398610d2b565b6040516103a59190614988565b60405180910390f35b3480156103ba57600080fd5b506103d560048036038101906103d09190614008565b610d42565b005b3480156103e357600080fd5b506103ec610d52565b6040516103f9919061469e565b60405180910390f35b61041c6004803603810190610417919061414a565b610d7c565b005b34801561042a57600080fd5b50610433611050565b6040516104409190614988565b60405180910390f35b34801561045557600080fd5b5061045e611056565b60405161046b9190614750565b60405180910390f35b34801561048057600080fd5b50610489611069565b005b34801561049757600080fd5b506104b260048036038101906104ad9190614008565b61112e565b005b3480156104c057600080fd5b506104db60048036038101906104d6919061425a565b61114e565b005b3480156104e957600080fd5b506104f261115c565b6040516104ff919061476b565b60405180910390f35b34801561051457600080fd5b5061051d611166565b60405161052a9190614750565b60405180910390f35b34801561053f57600080fd5b50610548611179565b6040516105559190614786565b60405180910390f35b34801561056a57600080fd5b5061058560048036038101906105809190614283565b6111b6565b005b34801561059357600080fd5b5061059c6112e6565b005b3480156105aa57600080fd5b506105c560048036038101906105c0919061425a565b61138e565b6040516105d2919061469e565b60405180910390f35b3480156105e757600080fd5b506105f06113a4565b6040516105fd9190614988565b60405180910390f35b34801561061257600080fd5b5061062d60048036038101906106289190613fa3565b6113a9565b60405161063a9190614988565b60405180910390f35b34801561064f57600080fd5b5061066a60048036038101906106659190613fa3565b6113bb565b6040516106779190614988565b60405180910390f35b34801561068c57600080fd5b5061069561148b565b005b3480156106a357600080fd5b506106be60048036038101906106b9919061419e565b611513565b005b3480156106cc57600080fd5b506106d5611599565b005b3480156106e357600080fd5b506106ec611701565b6040516106f99190614750565b60405180910390f35b34801561070e57600080fd5b50610717611714565b005b34801561072557600080fd5b5061072e6117bc565b60405161073b919061469e565b60405180910390f35b34801561075057600080fd5b506107596117e6565b6040516107669190614786565b60405180910390f35b34801561077b57600080fd5b5061079660048036038101906107919190613fa3565b611878565b6040516107a3919061472e565b60405180910390f35b3480156107b857600080fd5b506107d360048036038101906107ce9190613fa3565b611ac6565b6040516107e09190614988565b60405180910390f35b61080360048036038101906107fe919061425a565b611ad8565b005b34801561081157600080fd5b5061082c600480360381019061082791906140d2565b611d31565b005b34801561083a57600080fd5b5061085560048036038101906108509190614057565b611ea9565b005b34801561086357600080fd5b5061086c611f25565b6040516108799190614988565b60405180910390f35b34801561088e57600080fd5b50610897611f2f565b6040516108a49190614988565b60405180910390f35b3480156108b957600080fd5b506108d460048036038101906108cf919061425a565b611f34565b6040516108e19190614786565b60405180910390f35b3480156108f657600080fd5b50610911600480360381019061090c9190613fa3565b611fd3565b005b34801561091f57600080fd5b50610928612093565b005b34801561093657600080fd5b50610951600480360381019061094c9190613fcc565b61213b565b60405161095e9190614750565b60405180910390f35b34801561097357600080fd5b5061098e60048036038101906109899190613fa3565b6121cf565b005b60007f80ac58cd000000000000000000000000000000000000000000000000000000007bffffffffffffffffffffffffffffffffffffffffffffffffffffffff1916827bffffffffffffffffffffffffffffffffffffffffffffffffffffffff19161480610a5b57507f5b5e139f000000000000000000000000000000000000000000000000000000007bffffffffffffffffffffffffffffffffffffffffffffffffffffffff1916827bffffffffffffffffffffffffffffffffffffffffffffffffffffffff1916145b80610a6b5750610a6a826122c7565b5b9050919050565b610a7a612331565b73ffffffffffffffffffffffffffffffffffffffff16610a986117bc565b73ffffffffffffffffffffffffffffffffffffffff1614610aee576040517f08c379a0000000000000000000000000000000000000000000000000000000008152600401610ae5906148c8565b60405180910390fd5b8060fd9080519060200190610b04929190613c43565b5050565b606060678054610b1790614cd3565b80601f0160208091040260200160405190810160405280929190818152602001828054610b4390614cd3565b8015610b905780601f10610b6557610100808354040283529160200191610b90565b820191906000526020600020905b815481529060010190602001808311610b7357829003601f168201915b5050505050905090565b6551dac207a00081565b6000610baf82612339565b610be5576040517fcf4700e400000000000000000000000000000000000000000000000000000000815260040160405180910390fd5b606b600083815260200190815260200160002060009054906101000a900473ffffffffffffffffffffffffffffffffffffffff169050919050565b6000610c2b8261138e565b90508073ffffffffffffffffffffffffffffffffffffffff168373ffffffffffffffffffffffffffffffffffffffff161415610c93576040517f943f7b8c00000000000000000000000000000000000000000000000000000000815260040160405180910390fd5b8073ffffffffffffffffffffffffffffffffffffffff16610cb2612331565b73ffffffffffffffffffffffffffffffffffffffff1614158015610ce45750610ce281610cdd612331565b61213b565b155b15610d1b576040517fcfb3b94200000000000000000000000000000000000000000000000000000000815260040160405180910390fd5b610d26838383612387565b505050565b6000610d35612439565b6066546065540303905090565b610d4d83838361243e565b505050565b600060fe60009054906101000a900473ffffffffffffffffffffffffffffffffffffffff16905090565b3373ffffffffffffffffffffffffffffffffffffffff163273ffffffffffffffffffffffffffffffffffffffff1614610dea576040517f08c379a0000000000000000000000000000000000000000000000000000000008152600401610de190614828565b60405180910390fd5b60fb60029054906101000a900460ff16610e39576040517f08c379a0000000000000000000000000000000000000000000000000000000008152600401610e30906148a8565b60405180910390fd5b611e6181610e45610d2b565b610e4f9190614afe565b1115610e90576040517f08c379a0000000000000000000000000000000000000000000000000000000008152600401610e8790614868565b60405180910390fd5b60038161010060003373ffffffffffffffffffffffffffffffffffffffff1673ffffffffffffffffffffffffffffffffffffffff16815260200190815260200160002054610ede9190614afe565b1115610f1f576040517f08c379a0000000000000000000000000000000000000000000000000000000008152600401610f1690614808565b60405180910390fd5b806512309ce54000610f319190614b85565b341015610f73576040517f08c379a0000000000000000000000000000000000000000000000000000000008152600401610f6a90614948565b60405180910390fd5b600033604051602001610f86919061465f565b604051602081830303815290604052805190602001209050610fab8360fc54836128f4565b610fea576040517f08c379a0000000000000000000000000000000000000000000000000000000008152600401610fe190614888565b60405180910390fd5b8161010060003373ffffffffffffffffffffffffffffffffffffffff1673ffffffffffffffffffffffffffffffffffffffff168152602001908152602001600020600082825461103a9190614afe565b9250508190555061104b338361290b565b505050565b611e6181565b60fb60019054906101000a900460ff1681565b611071612331565b73ffffffffffffffffffffffffffffffffffffffff1661108f6117bc565b73ffffffffffffffffffffffffffffffffffffffff16146110e5576040517f08c379a00000000000000000000000000000000000000000000000000000000081526004016110dc906148c8565b60405180910390fd5b3373ffffffffffffffffffffffffffffffffffffffff166108fc479081150290604051600060405180830381858888f1935050505015801561112b573d6000803e3d6000fd5b50565b61114983838360405180602001604052806000815250611ea9565b505050565b611159816001612929565b50565b600060fc54905090565b60fb60009054906101000a900460ff1681565b60606040518060400160405280600581526020017f312e302e30000000000000000000000000000000000000000000000000000000815250905090565b3373ffffffffffffffffffffffffffffffffffffffff163273ffffffffffffffffffffffffffffffffffffffff1614611224576040517f08c379a000000000000000000000000000000000000000000000000000000000815260040161121b90614828565b60405180910390fd5b8161122e336113bb565b101561126f576040517f08c379a0000000000000000000000000000000000000000000000000000000008152600401611266906148e8565b60405180910390fd5b60005b828110156112d8576112c58282815181106112b6577f4e487b7100000000000000000000000000000000000000000000000000000000600052603260045260246000fd5b60200260200101516001612929565b80806112d090614d36565b915050611272565b506112e282612d19565b5050565b6112ee612331565b73ffffffffffffffffffffffffffffffffffffffff1661130c6117bc565b73ffffffffffffffffffffffffffffffffffffffff1614611362576040517f08c379a0000000000000000000000000000000000000000000000000000000008152600401611359906148c8565b60405180910390fd5b60fb60009054906101000a900460ff161560fb60006101000a81548160ff021916908315150217905550565b600061139982612db1565b600001519050919050565b600a81565b60006113b482613040565b9050919050565b60008073ffffffffffffffffffffffffffffffffffffffff168273ffffffffffffffffffffffffffffffffffffffff161415611423576040517f8f4eb60400000000000000000000000000000000000000000000000000000000815260040160405180910390fd5b606a60008373ffffffffffffffffffffffffffffffffffffffff1673ffffffffffffffffffffffffffffffffffffffff16815260200190815260200160002060000160009054906101000a900467ffffffffffffffff1667ffffffffffffffff169050919050565b611493612331565b73ffffffffffffffffffffffffffffffffffffffff166114b16117bc565b73ffffffffffffffffffffffffffffffffffffffff1614611507576040517f08c379a00000000000000000000000000000000000000000000000000000000081526004016114fe906148c8565b60405180910390fd5b61151160006130aa565b565b61151b612331565b73ffffffffffffffffffffffffffffffffffffffff166115396117bc565b73ffffffffffffffffffffffffffffffffffffffff161461158f576040517f08c379a0000000000000000000000000000000000000000000000000000000008152600401611586906148c8565b60405180910390fd5b8060fc8190555050565b600060019054906101000a900460ff166115c15760008054906101000a900460ff16156115ca565b6115c9613170565b5b611609576040517f08c379a000000000000000000000000000000000000000000000000000000000815260040161160090614848565b60405180910390fd5b60008060019054906101000a900460ff161590508015611659576001600060016101000a81548160ff02191690831515021790555060016000806101000a81548160ff0219169083151502179055505b6116cd6040518060400160405280600381526020017f426f7800000000000000000000000000000000000000000000000000000000008152506040518060400160405280600381526020017f424f580000000000000000000000000000000000000000000000000000000000815250613181565b6116d56131de565b6116dd613237565b80156116fe5760008060016101000a81548160ff0219169083151502179055505b50565b60fb60029054906101000a900460ff1681565b61171c612331565b73ffffffffffffffffffffffffffffffffffffffff1661173a6117bc565b73ffffffffffffffffffffffffffffffffffffffff1614611790576040517f08c379a0000000000000000000000000000000000000000000000000000000008152600401611787906148c8565b60405180910390fd5b60fb60029054906101000a900460ff161560fb60026101000a81548160ff021916908315150217905550565b600060c960009054906101000a900473ffffffffffffffffffffffffffffffffffffffff16905090565b6060606880546117f590614cd3565b80601f016020809104026020016040519081016040528092919081815260200182805461182190614cd3565b801561186e5780601f106118435761010080835404028352916020019161186e565b820191906000526020600020905b81548152906001019060200180831161185157829003601f168201915b5050505050905090565b60606000806000611888856113bb565b905060008167ffffffffffffffff8111156118cc577f4e487b7100000000000000000000000000000000000000000000000000000000600052604160045260246000fd5b6040519080825280602002602001820160405280156118fa5781602001602082028036833780820191505090505b509050611905613cc9565b600061190f612439565b90505b838614611ab857606960008281526020019081526020016000206040518060600160405290816000820160009054906101000a900473ffffffffffffffffffffffffffffffffffffffff1673ffffffffffffffffffffffffffffffffffffffff1673ffffffffffffffffffffffffffffffffffffffff1681526020016000820160149054906101000a900467ffffffffffffffff1667ffffffffffffffff1667ffffffffffffffff16815260200160008201601c9054906101000a900460ff16151515158152505091508160400151156119eb57611aad565b600073ffffffffffffffffffffffffffffffffffffffff16826000015173ffffffffffffffffffffffffffffffffffffffff1614611a2b57816000015194505b8773ffffffffffffffffffffffffffffffffffffffff168573ffffffffffffffffffffffffffffffffffffffff161415611aac5780838780600101985081518110611a9f577f4e487b7100000000000000000000000000000000000000000000000000000000600052603260045260246000fd5b6020026020010181815250505b5b806001019050611912565b508195505050505050919050565b6000611ad182613288565b9050919050565b3373ffffffffffffffffffffffffffffffffffffffff163273ffffffffffffffffffffffffffffffffffffffff1614611b46576040517f08c379a0000000000000000000000000000000000000000000000000000000008152600401611b3d90614828565b60405180910390fd5b60fb60019054906101000a900460ff16611b95576040517f08c379a0000000000000000000000000000000000000000000000000000000008152600401611b8c906147c8565b60405180910390fd5b611e6181611ba1610d2b565b611bab9190614afe565b1115611bec576040517f08c379a0000000000000000000000000000000000000000000000000000000008152600401611be390614968565b60405180910390fd5b600a8160ff60003373ffffffffffffffffffffffffffffffffffffffff1673ffffffffffffffffffffffffffffffffffffffff16815260200190815260200160002054611c399190614afe565b1115611c7a576040517f08c379a0000000000000000000000000000000000000000000000000000000008152600401611c71906147a8565b60405180910390fd5b806551dac207a000611c8c9190614b85565b341015611cce576040517f08c379a0000000000000000000000000000000000000000000000000000000008152600401611cc590614928565b60405180910390fd5b8060ff60003373ffffffffffffffffffffffffffffffffffffffff1673ffffffffffffffffffffffffffffffffffffffff1681526020019081526020016000206000828254611d1d9190614afe565b92505081905550611d2e338261290b565b50565b611d39612331565b73ffffffffffffffffffffffffffffffffffffffff168273ffffffffffffffffffffffffffffffffffffffff161415611d9e576040517fb06307db00000000000000000000000000000000000000000000000000000000815260040160405180910390fd5b80606c6000611dab612331565b73ffffffffffffffffffffffffffffffffffffffff1673ffffffffffffffffffffffffffffffffffffffff16815260200190815260200160002060008473ffffffffffffffffffffffffffffffffffffffff1673ffffffffffffffffffffffffffffffffffffffff16815260200190815260200160002060006101000a81548160ff0219169083151502179055508173ffffffffffffffffffffffffffffffffffffffff16611e58612331565b73ffffffffffffffffffffffffffffffffffffffff167f17307eab39ab6107e8899845ad3d59bd9653f200f220920489ca2b5937696c3183604051611e9d9190614750565b60405180910390a35050565b611eb484848461243e565b611ed38373ffffffffffffffffffffffffffffffffffffffff166132f2565b8015611ee85750611ee684848484613315565b155b15611f1f576040517fd1a57ed600000000000000000000000000000000000000000000000000000000815260040160405180910390fd5b50505050565b6512309ce5400081565b600381565b6060611f3f82612339565b611f75576040517fa14c4b5000000000000000000000000000000000000000000000000000000000815260040160405180910390fd5b6000611f7f613475565b9050600081511415611fa05760405180602001604052806000815250611fcb565b80611faa84613507565b604051602001611fbb92919061467a565b6040516020818303038152906040525b915050919050565b611fdb612331565b73ffffffffffffffffffffffffffffffffffffffff16611ff96117bc565b73ffffffffffffffffffffffffffffffffffffffff161461204f576040517f08c379a0000000000000000000000000000000000000000000000000000000008152600401612046906148c8565b60405180910390fd5b8060fe60006101000a81548173ffffffffffffffffffffffffffffffffffffffff021916908373ffffffffffffffffffffffffffffffffffffffff16021790555050565b61209b612331565b73ffffffffffffffffffffffffffffffffffffffff166120b96117bc565b73ffffffffffffffffffffffffffffffffffffffff161461210f576040517f08c379a0000000000000000000000000000000000000000000000000000000008152600401612106906148c8565b60405180910390fd5b60fb60019054906101000a900460ff161560fb60016101000a81548160ff021916908315150217905550565b6000606c60008473ffffffffffffffffffffffffffffffffffffffff1673ffffffffffffffffffffffffffffffffffffffff16815260200190815260200160002060008373ffffffffffffffffffffffffffffffffffffffff1673ffffffffffffffffffffffffffffffffffffffff16815260200190815260200160002060009054906101000a900460ff16905092915050565b6121d7612331565b73ffffffffffffffffffffffffffffffffffffffff166121f56117bc565b73ffffffffffffffffffffffffffffffffffffffff161461224b576040517f08c379a0000000000000000000000000000000000000000000000000000000008152600401612242906148c8565b60405180910390fd5b600073ffffffffffffffffffffffffffffffffffffffff168173ffffffffffffffffffffffffffffffffffffffff1614156122bb576040517f08c379a00000000000000000000000000000000000000000000000000000000081526004016122b2906147e8565b60405180910390fd5b6122c4816130aa565b50565b60007f01ffc9a7000000000000000000000000000000000000000000000000000000007bffffffffffffffffffffffffffffffffffffffffffffffffffffffff1916827bffffffffffffffffffffffffffffffffffffffffffffffffffffffff1916149050919050565b600033905090565b600081612344612439565b11158015612353575060655482105b8015612380575060696000838152602001908152602001600020600001601c9054906101000a900460ff16155b9050919050565b82606b600084815260200190815260200160002060006101000a81548173ffffffffffffffffffffffffffffffffffffffff021916908373ffffffffffffffffffffffffffffffffffffffff160217905550818373ffffffffffffffffffffffffffffffffffffffff168273ffffffffffffffffffffffffffffffffffffffff167f8c5be1e5ebec7d5bd14f71427d1e84f3dd0314c0f7b2291e5b200ac8c7c3b92560405160405180910390a4505050565b600090565b600061244982612db1565b90508373ffffffffffffffffffffffffffffffffffffffff16816000015173ffffffffffffffffffffffffffffffffffffffff16146124b4576040517fa114810000000000000000000000000000000000000000000000000000000000815260040160405180910390fd5b60008473ffffffffffffffffffffffffffffffffffffffff166124d5612331565b73ffffffffffffffffffffffffffffffffffffffff1614806125045750612503856124fe612331565b61213b565b5b806125495750612512612331565b73ffffffffffffffffffffffffffffffffffffffff1661253184610ba4565b73ffffffffffffffffffffffffffffffffffffffff16145b905080612582576040517f59c896be00000000000000000000000000000000000000000000000000000000815260040160405180910390fd5b600073ffffffffffffffffffffffffffffffffffffffff168473ffffffffffffffffffffffffffffffffffffffff1614156125e9576040517fea553b3400000000000000000000000000000000000000000000000000000000815260040160405180910390fd5b6125f685858560016136b4565b61260260008487612387565b6001606a60008773ffffffffffffffffffffffffffffffffffffffff1673ffffffffffffffffffffffffffffffffffffffff16815260200190815260200160002060000160008282829054906101000a900467ffffffffffffffff160392506101000a81548167ffffffffffffffff021916908367ffffffffffffffff1602179055506001606a60008673ffffffffffffffffffffffffffffffffffffffff1673ffffffffffffffffffffffffffffffffffffffff16815260200190815260200160002060000160008282829054906101000a900467ffffffffffffffff160192506101000a81548167ffffffffffffffff021916908367ffffffffffffffff1602179055506000606960008581526020019081526020016000209050848160000160006101000a81548173ffffffffffffffffffffffffffffffffffffffff021916908373ffffffffffffffffffffffffffffffffffffffff160217905550428160000160146101000a81548167ffffffffffffffff021916908367ffffffffffffffff16021790555060006001850190506000606960008381526020019081526020016000209050600073ffffffffffffffffffffffffffffffffffffffff168160000160009054906101000a900473ffffffffffffffffffffffffffffffffffffffff1673ffffffffffffffffffffffffffffffffffffffff16141561288257606554821461288157878160000160006101000a81548173ffffffffffffffffffffffffffffffffffffffff021916908373ffffffffffffffffffffffffffffffffffffffff16021790555084602001518160000160146101000a81548167ffffffffffffffff021916908367ffffffffffffffff1602179055505b5b505050828473ffffffffffffffffffffffffffffffffffffffff168673ffffffffffffffffffffffffffffffffffffffff167fddf252ad1be2c89b69c2b068fc378daa952ba7f163c4a11628f55a4df523b3ef60405160405180910390a46128ed85858560016136ba565b5050505050565b60008261290185846136c0565b1490509392505050565b61292582826040518060200160405280600081525061375b565b5050565b600061293483612db1565b90506000816000015190508215612a155760008173ffffffffffffffffffffffffffffffffffffffff16612966612331565b73ffffffffffffffffffffffffffffffffffffffff16148061299557506129948261298f612331565b61213b565b5b806129da57506129a3612331565b73ffffffffffffffffffffffffffffffffffffffff166129c286610ba4565b73ffffffffffffffffffffffffffffffffffffffff16145b905080612a13576040517f59c896be00000000000000000000000000000000000000000000000000000000815260040160405180910390fd5b505b612a238160008660016136b4565b612a2f60008583612387565b6000606a60008373ffffffffffffffffffffffffffffffffffffffff1673ffffffffffffffffffffffffffffffffffffffff168152602001908152602001600020905060018160000160008282829054906101000a900467ffffffffffffffff160392506101000a81548167ffffffffffffffff021916908367ffffffffffffffff16021790555060018160000160108282829054906101000a900467ffffffffffffffff160192506101000a81548167ffffffffffffffff021916908367ffffffffffffffff1602179055506000606960008781526020019081526020016000209050828160000160006101000a81548173ffffffffffffffffffffffffffffffffffffffff021916908373ffffffffffffffffffffffffffffffffffffffff160217905550428160000160146101000a81548167ffffffffffffffff021916908367ffffffffffffffff160217905550600181600001601c6101000a81548160ff02191690831515021790555060006001870190506000606960008381526020019081526020016000209050600073ffffffffffffffffffffffffffffffffffffffff168160000160009054906101000a900473ffffffffffffffffffffffffffffffffffffffff1673ffffffffffffffffffffffffffffffffffffffff161415612c93576065548214612c9257848160000160006101000a81548173ffffffffffffffffffffffffffffffffffffffff021916908373ffffffffffffffffffffffffffffffffffffffff16021790555085602001518160000160146101000a81548167ffffffffffffffff021916908367ffffffffffffffff1602179055505b5b5050505083600073ffffffffffffffffffffffffffffffffffffffff168273ffffffffffffffffffffffffffffffffffffffff167fddf252ad1be2c89b69c2b068fc378daa952ba7f163c4a11628f55a4df523b3ef60405160405180910390a4612d018160008660016136ba565b60666000815480929190600101919050555050505050565b600060fe60009054906101000a900473ffffffffffffffffffffffffffffffffffffffff1690508073ffffffffffffffffffffffffffffffffffffffff166340c10f1933846040518363ffffffff1660e01b8152600401612d7b929190614705565b600060405180830381600087803b158015612d9557600080fd5b505af1158015612da9573d6000803e3d6000fd5b505050505050565b612db9613cc9565b600082905080612dc7612439565b11158015612dd6575060655481105b15613009576000606960008381526020019081526020016000206040518060600160405290816000820160009054906101000a900473ffffffffffffffffffffffffffffffffffffffff1673ffffffffffffffffffffffffffffffffffffffff1673ffffffffffffffffffffffffffffffffffffffff1681526020016000820160149054906101000a900467ffffffffffffffff1667ffffffffffffffff1667ffffffffffffffff16815260200160008201601c9054906101000a900460ff1615151515815250509050806040015161300757600073ffffffffffffffffffffffffffffffffffffffff16816000015173ffffffffffffffffffffffffffffffffffffffff1614612eeb57809250505061303b565b5b60011561300657818060019003925050606960008381526020019081526020016000206040518060600160405290816000820160009054906101000a900473ffffffffffffffffffffffffffffffffffffffff1673ffffffffffffffffffffffffffffffffffffffff1673ffffffffffffffffffffffffffffffffffffffff1681526020016000820160149054906101000a900467ffffffffffffffff1667ffffffffffffffff1667ffffffffffffffff16815260200160008201601c9054906101000a900460ff1615151515815250509050600073ffffffffffffffffffffffffffffffffffffffff16816000015173ffffffffffffffffffffffffffffffffffffffff161461300157809250505061303b565b612eec565b5b505b6040517fdf2d9b4200000000000000000000000000000000000000000000000000000000815260040160405180910390fd5b919050565b6000606a60008373ffffffffffffffffffffffffffffffffffffffff1673ffffffffffffffffffffffffffffffffffffffff16815260200190815260200160002060000160089054906101000a900467ffffffffffffffff1667ffffffffffffffff169050919050565b600060c960009054906101000a900473ffffffffffffffffffffffffffffffffffffffff1690508160c960006101000a81548173ffffffffffffffffffffffffffffffffffffffff021916908373ffffffffffffffffffffffffffffffffffffffff1602179055508173ffffffffffffffffffffffffffffffffffffffff168173ffffffffffffffffffffffffffffffffffffffff167f8be0079c531659141344cd1fd0a4f28419497f9722a3daafe3b4186f6b6457e060405160405180910390a35050565b600061317b306132f2565b15905090565b600060019054906101000a900460ff166131d0576040517f08c379a00000000000000000000000000000000000000000000000000000000081526004016131c790614908565b60405180910390fd5b6131da828261376d565b5050565b600060019054906101000a900460ff1661322d576040517f08c379a000000000000000000000000000000000000000000000000000000000815260040161322490614908565b60405180910390fd5b6132356137fc565b565b600060019054906101000a900460ff16613286576040517f08c379a000000000000000000000000000000000000000000000000000000000815260040161327d90614908565b60405180910390fd5b565b6000606a60008373ffffffffffffffffffffffffffffffffffffffff1673ffffffffffffffffffffffffffffffffffffffff16815260200190815260200160002060000160109054906101000a900467ffffffffffffffff1667ffffffffffffffff169050919050565b6000808273ffffffffffffffffffffffffffffffffffffffff163b119050919050565b60008373ffffffffffffffffffffffffffffffffffffffff1663150b7a0261333b612331565b8786866040518563ffffffff1660e01b815260040161335d94939291906146b9565b602060405180830381600087803b15801561337757600080fd5b505af19250505080156133a857506040513d601f19601f820116820180604052508101906133a591906141f0565b60015b613422573d80600081146133d8576040519150601f19603f3d011682016040523d82523d6000602084013e6133dd565b606091505b5060008151141561341a576040517fd1a57ed600000000000000000000000000000000000000000000000000000000815260040160405180910390fd5b805181602001fd5b63150b7a0260e01b7bffffffffffffffffffffffffffffffffffffffffffffffffffffffff1916817bffffffffffffffffffffffffffffffffffffffffffffffffffffffff191614915050949350505050565b606060fd805461348490614cd3565b80601f01602080910402602001604051908101604052809291908181526020018280546134b090614cd3565b80156134fd5780601f106134d2576101008083540402835291602001916134fd565b820191906000526020600020905b8154815290600101906020018083116134e057829003601f168201915b5050505050905090565b6060600082141561354f576040518060400160405280600181526020017f300000000000000000000000000000000000000000000000000000000000000081525090506136af565b600082905060005b6000821461358157808061356a90614d36565b915050600a8261357a9190614b54565b9150613557565b60008167ffffffffffffffff8111156135c3577f4e487b7100000000000000000000000000000000000000000000000000000000600052604160045260246000fd5b6040519080825280601f01601f1916602001820160405280156135f55781602001600182028036833780820191505090505b5090505b600085146136a85760018261360e9190614bdf565b9150600a8561361d9190614da3565b60306136299190614afe565b60f81b818381518110613665577f4e487b7100000000000000000000000000000000000000000000000000000000600052603260045260246000fd5b60200101907effffffffffffffffffffffffffffffffffffffffffffffffffffffffffffff1916908160001a905350600a856136a19190614b54565b94506135f9565b8093505050505b919050565b50505050565b50505050565b60008082905060005b845181101561375057600085828151811061370d577f4e487b7100000000000000000000000000000000000000000000000000000000600052603260045260246000fd5b6020026020010151905080831161372f57613728838261385d565b925061373c565b613739818461385d565b92505b50808061374890614d36565b9150506136c9565b508091505092915050565b6137688383836001613874565b505050565b600060019054906101000a900460ff166137bc576040517f08c379a00000000000000000000000000000000000000000000000000000000081526004016137b390614908565b60405180910390fd5b81606790805190602001906137d2929190613c43565b5080606890805190602001906137e9929190613c43565b506137f2612439565b6065819055505050565b600060019054906101000a900460ff1661384b576040517f08c379a000000000000000000000000000000000000000000000000000000000815260040161384290614908565b60405180910390fd5b61385b613856612331565b6130aa565b565b600082600052816020526040600020905092915050565b60006065549050600073ffffffffffffffffffffffffffffffffffffffff168573ffffffffffffffffffffffffffffffffffffffff1614156138e2576040517f2e07630000000000000000000000000000000000000000000000000000000000815260040160405180910390fd5b600084141561391d576040517fb562e8dd00000000000000000000000000000000000000000000000000000000815260040160405180910390fd5b61392a60008683876136b4565b83606a60008773ffffffffffffffffffffffffffffffffffffffff1673ffffffffffffffffffffffffffffffffffffffff16815260200190815260200160002060000160008282829054906101000a900467ffffffffffffffff160192506101000a81548167ffffffffffffffff021916908367ffffffffffffffff16021790555083606a60008773ffffffffffffffffffffffffffffffffffffffff1673ffffffffffffffffffffffffffffffffffffffff16815260200190815260200160002060000160088282829054906101000a900467ffffffffffffffff160192506101000a81548167ffffffffffffffff021916908367ffffffffffffffff160217905550846069600083815260200190815260200160002060000160006101000a81548173ffffffffffffffffffffffffffffffffffffffff021916908373ffffffffffffffffffffffffffffffffffffffff160217905550426069600083815260200190815260200160002060000160146101000a81548167ffffffffffffffff021916908367ffffffffffffffff160217905550600081905060008582019050838015613af45750613af38773ffffffffffffffffffffffffffffffffffffffff166132f2565b5b15613bba575b818773ffffffffffffffffffffffffffffffffffffffff16600073ffffffffffffffffffffffffffffffffffffffff167fddf252ad1be2c89b69c2b068fc378daa952ba7f163c4a11628f55a4df523b3ef60405160405180910390a4613b696000888480600101955088613315565b613b9f576040517fd1a57ed600000000000000000000000000000000000000000000000000000000815260040160405180910390fd5b80821415613afa578260655414613bb557600080fd5b613c26565b5b818060010192508773ffffffffffffffffffffffffffffffffffffffff16600073ffffffffffffffffffffffffffffffffffffffff167fddf252ad1be2c89b69c2b068fc378daa952ba7f163c4a11628f55a4df523b3ef60405160405180910390a480821415613bbb575b816065819055505050613c3c60008683876136ba565b5050505050565b828054613c4f90614cd3565b90600052602060002090601f016020900481019282613c715760008555613cb8565b82601f10613c8a57805160ff1916838001178555613cb8565b82800160010185558215613cb8579182015b82811115613cb7578251825591602001919060010190613c9c565b5b509050613cc59190613d0c565b5090565b6040518060600160405280600073ffffffffffffffffffffffffffffffffffffffff168152602001600067ffffffffffffffff1681526020016000151581525090565b5b80821115613d25576000816000905550600101613d0d565b5090565b6000613d3c613d37846149c8565b6149a3565b90508083825260208201905082856020860282011115613d5b57600080fd5b60005b85811015613d8b5781613d718882613efb565b845260208401935060208301925050600181019050613d5e565b5050509392505050565b6000613da8613da3846149f4565b6149a3565b90508083825260208201905082856020860282011115613dc757600080fd5b60005b85811015613df75781613ddd8882613f8e565b845260208401935060208301925050600181019050613dca565b5050509392505050565b6000613e14613e0f84614a20565b6149a3565b905082815260208101848484011115613e2c57600080fd5b613e37848285614c91565b509392505050565b6000613e52613e4d84614a51565b6149a3565b905082815260208101848484011115613e6a57600080fd5b613e75848285614c91565b509392505050565b600081359050613e8c8161526b565b92915050565b600082601f830112613ea357600080fd5b8135613eb3848260208601613d29565b91505092915050565b600082601f830112613ecd57600080fd5b8135613edd848260208601613d95565b91505092915050565b600081359050613ef581615282565b92915050565b600081359050613f0a81615299565b92915050565b600081359050613f1f816152b0565b92915050565b600081519050613f34816152b0565b92915050565b600082601f830112613f4b57600080fd5b8135613f5b848260208601613e01565b91505092915050565b600082601f830112613f7557600080fd5b8135613f85848260208601613e3f565b91505092915050565b600081359050613f9d816152c7565b92915050565b600060208284031215613fb557600080fd5b6000613fc384828501613e7d565b91505092915050565b60008060408385031215613fdf57600080fd5b6000613fed85828601613e7d565b9250506020613ffe85828601613e7d565b9150509250929050565b60008060006060848603121561401d57600080fd5b600061402b86828701613e7d565b935050602061403c86828701613e7d565b925050604061404d86828701613f8e565b9150509250925092565b6000806000806080858703121561406d57600080fd5b600061407b87828801613e7d565b945050602061408c87828801613e7d565b935050604061409d87828801613f8e565b925050606085013567ffffffffffffffff8111156140ba57600080fd5b6140c687828801613f3a565b91505092959194509250565b600080604083850312156140e557600080fd5b60006140f385828601613e7d565b925050602061410485828601613ee6565b9150509250929050565b6000806040838503121561412157600080fd5b600061412f85828601613e7d565b925050602061414085828601613f8e565b9150509250929050565b6000806040838503121561415d57600080fd5b600083013567ffffffffffffffff81111561417757600080fd5b61418385828601613e92565b925050602061419485828601613f8e565b9150509250929050565b6000602082840312156141b057600080fd5b60006141be84828501613efb565b91505092915050565b6000602082840312156141d957600080fd5b60006141e784828501613f10565b91505092915050565b60006020828403121561420257600080fd5b600061421084828501613f25565b91505092915050565b60006020828403121561422b57600080fd5b600082013567ffffffffffffffff81111561424557600080fd5b61425184828501613f64565b91505092915050565b60006020828403121561426c57600080fd5b600061427a84828501613f8e565b91505092915050565b6000806040838503121561429657600080fd5b60006142a485828601613f8e565b925050602083013567ffffffffffffffff8111156142c157600080fd5b6142cd85828601613ebc565b9150509250929050565b60006142e38383614641565b60208301905092915050565b6142f881614c13565b82525050565b61430f61430a82614c13565b614d7f565b82525050565b600061432082614a92565b61432a8185614ac0565b935061433583614a82565b8060005b8381101561436657815161434d88826142d7565b975061435883614ab3565b925050600181019050614339565b5085935050505092915050565b61437c81614c25565b82525050565b61438b81614c31565b82525050565b600061439c82614a9d565b6143a68185614ad1565b93506143b6818560208601614ca0565b6143bf81614e90565b840191505092915050565b60006143d582614aa8565b6143df8185614ae2565b93506143ef818560208601614ca0565b6143f881614e90565b840191505092915050565b600061440e82614aa8565b6144188185614af3565b9350614428818560208601614ca0565b80840191505092915050565b6000614441601f83614ae2565b915061444c82614eae565b602082019050919050565b6000614464601683614ae2565b915061446f82614ed7565b602082019050919050565b6000614487602683614ae2565b915061449282614f00565b604082019050919050565b60006144aa602d83614ae2565b91506144b582614f4f565b604082019050919050565b60006144cd602583614ae2565b91506144d882614f9e565b604082019050919050565b60006144f0602e83614ae2565b91506144fb82614fed565b604082019050919050565b6000614513602483614ae2565b915061451e8261503c565b604082019050919050565b6000614536601e83614ae2565b91506145418261508b565b602082019050919050565b6000614559601a83614ae2565b9150614564826150b4565b602082019050919050565b600061457c602083614ae2565b9150614587826150dd565b602082019050919050565b600061459f602983614ae2565b91506145aa82615106565b604082019050919050565b60006145c2602b83614ae2565b91506145cd82615155565b604082019050919050565b60006145e5602283614ae2565b91506145f0826151a4565b604082019050919050565b6000614608602183614ae2565b9150614613826151f3565b604082019050919050565b600061462b601883614ae2565b915061463682615242565b602082019050919050565b61464a81614c87565b82525050565b61465981614c87565b82525050565b600061466b82846142fe565b60148201915081905092915050565b60006146868285614403565b91506146928284614403565b91508190509392505050565b60006020820190506146b360008301846142ef565b92915050565b60006080820190506146ce60008301876142ef565b6146db60208301866142ef565b6146e86040830185614650565b81810360608301526146fa8184614391565b905095945050505050565b600060408201905061471a60008301856142ef565b6147276020830184614650565b9392505050565b600060208201905081810360008301526147488184614315565b905092915050565b60006020820190506147656000830184614373565b92915050565b60006020820190506147806000830184614382565b92915050565b600060208201905081810360008301526147a081846143ca565b905092915050565b600060208201905081810360008301526147c181614434565b9050919050565b600060208201905081810360008301526147e181614457565b9050919050565b600060208201905081810360008301526148018161447a565b9050919050565b600060208201905081810360008301526148218161449d565b9050919050565b60006020820190508181036000830152614841816144c0565b9050919050565b60006020820190508181036000830152614861816144e3565b9050919050565b6000602082019050818103600083015261488181614506565b9050919050565b600060208201905081810360008301526148a181614529565b9050919050565b600060208201905081810360008301526148c18161454c565b9050919050565b600060208201905081810360008301526148e18161456f565b9050919050565b6000602082019050818103600083015261490181614592565b9050919050565b60006020820190508181036000830152614921816145b5565b9050919050565b60006020820190508181036000830152614941816145d8565b9050919050565b60006020820190508181036000830152614961816145fb565b9050919050565b600060208201905081810360008301526149818161461e565b9050919050565b600060208201905061499d6000830184614650565b92915050565b60006149ad6149be565b90506149b98282614d05565b919050565b6000604051905090565b600067ffffffffffffffff8211156149e3576149e2614e61565b5b602082029050602081019050919050565b600067ffffffffffffffff821115614a0f57614a0e614e61565b5b602082029050602081019050919050565b600067ffffffffffffffff821115614a3b57614a3a614e61565b5b614a4482614e90565b9050602081019050919050565b600067ffffffffffffffff821115614a6c57614a6b614e61565b5b614a7582614e90565b9050602081019050919050565b6000819050602082019050919050565b600081519050919050565b600081519050919050565b600081519050919050565b6000602082019050919050565b600082825260208201905092915050565b600082825260208201905092915050565b600082825260208201905092915050565b600081905092915050565b6000614b0982614c87565b9150614b1483614c87565b9250827fffffffffffffffffffffffffffffffffffffffffffffffffffffffffffffffff03821115614b4957614b48614dd4565b5b828201905092915050565b6000614b5f82614c87565b9150614b6a83614c87565b925082614b7a57614b79614e03565b5b828204905092915050565b6000614b9082614c87565b9150614b9b83614c87565b9250817fffffffffffffffffffffffffffffffffffffffffffffffffffffffffffffffff0483118215151615614bd457614bd3614dd4565b5b828202905092915050565b6000614bea82614c87565b9150614bf583614c87565b925082821015614c0857614c07614dd4565b5b828203905092915050565b6000614c1e82614c67565b9050919050565b60008115159050919050565b6000819050919050565b60007fffffffff0000000000000000000000000000000000000000000000000000000082169050919050565b600073ffffffffffffffffffffffffffffffffffffffff82169050919050565b6000819050919050565b82818337600083830152505050565b60005b83811015614cbe578082015181840152602081019050614ca3565b83811115614ccd576000848401525b50505050565b60006002820490506001821680614ceb57607f821691505b60208210811415614cff57614cfe614e32565b5b50919050565b614d0e82614e90565b810181811067ffffffffffffffff82111715614d2d57614d2c614e61565b5b80604052505050565b6000614d4182614c87565b91507fffffffffffffffffffffffffffffffffffffffffffffffffffffffffffffffff821415614d7457614d73614dd4565b5b600182019050919050565b6000614d8a82614d91565b9050919050565b6000614d9c82614ea1565b9050919050565b6000614dae82614c87565b9150614db983614c87565b925082614dc957614dc8614e03565b5b828206905092915050565b7f4e487b7100000000000000000000000000000000000000000000000000000000600052601160045260246000fd5b7f4e487b7100000000000000000000000000000000000000000000000000000000600052601260045260246000fd5b7f4e487b7100000000000000000000000000000000000000000000000000000000600052602260045260246000fd5b7f4e487b7100000000000000000000000000000000000000000000000000000000600052604160045260246000fd5b6000601f19601f8301169050919050565b60008160601b9050919050565b7f426f78203a3a20416c7265616479206d696e7465642031302074696d65732100600082015250565b7f426f78203a3a204e6f7420596574204163746976652e00000000000000000000600082015250565b7f4f776e61626c653a206e6577206f776e657220697320746865207a65726f206160008201527f6464726573730000000000000000000000000000000000000000000000000000602082015250565b7f426f78203a3a2043616e6e6f74206d696e74206265796f6e642077686974656c60008201527f697374206d6178206d696e742100000000000000000000000000000000000000602082015250565b7f426f78203a3a2043616e6e6f742062652063616c6c6564206279206120636f6e60008201527f7472616374000000000000000000000000000000000000000000000000000000602082015250565b7f496e697469616c697a61626c653a20636f6e747261637420697320616c72656160008201527f647920696e697469616c697a6564000000000000000000000000000000000000602082015250565b7f426f78203a3a2043616e6e6f74206d696e74206265796f6e64206d617820737560008201527f70706c7900000000000000000000000000000000000000000000000000000000602082015250565b7f426f78203a3a20596f7520617265206e6f742077686974656c69737465640000600082015250565b7f426f78203a3a204d696e74696e67206973206f6e205061757365000000000000600082015250565b7f4f776e61626c653a2063616c6c6572206973206e6f7420746865206f776e6572600082015250565b7f426f78203a3a2043616e6e6f74206275726e6564206265796f6e64206d696e7460008201527f656420746f6b656e730000000000000000000000000000000000000000000000602082015250565b7f496e697469616c697a61626c653a20636f6e7472616374206973206e6f74206960008201527f6e697469616c697a696e67000000000000000000000000000000000000000000602082015250565b7f426f78203a3a205061796d656e742069732062656c6f7720746865207072696360008201527f6520000000000000000000000000000000000000000000000000000000000000602082015250565b7f426f78203a3a205061796d656e742069732062656c6f7720746865207072696360008201527f6500000000000000000000000000000000000000000000000000000000000000602082015250565b7f426f78203a3a204265796f6e64204d617820537570706c790000000000000000600082015250565b61527481614c13565b811461527f57600080fd5b50565b61528b81614c25565b811461529657600080fd5b50565b6152a281614c31565b81146152ad57600080fd5b50565b6152b981614c3b565b81146152c457600080fd5b50565b6152d081614c87565b81146152db57600080fd5b5056fea26469706673582212209539c20a00d16b13f4ff3c19df30a397c9d881baa149d5f49ef21a1591a40c5464736f6c63430008040033",
  "linkReferences": {},
  "deployedLinkReferences": {}
}