{
  "_format": "hh-sol-artifact-1",
  "contractName": "Box",
  "sourceName": "contracts/Box.sol",
  "abi": [
    {
      "inputs": [],
      "name": "ApprovalCallerNotOwnerNorApproved",
      "type": "error"
    },
    {
      "inputs": [],
      "name": "ApprovalQueryForNonexistentToken",
      "type": "error"
    },
    {
      "inputs": [],
      "name": "ApprovalToCurrentOwner",
      "type": "error"
    },
    {
      "inputs": [],
      "name": "ApproveToCaller",
      "type": "error"
    },
    {
      "inputs": [],
      "name": "BalanceQueryForZeroAddress",
      "type": "error"
    },
    {
      "inputs": [],
      "name": "MintToZeroAddress",
      "type": "error"
    },
    {
      "inputs": [],
      "name": "MintZeroQuantity",
      "type": "error"
    },
    {
      "inputs": [],
      "name": "OwnerQueryForNonexistentToken",
      "type": "error"
    },
    {
      "inputs": [],
      "name": "TransferCallerNotOwnerNorApproved",
      "type": "error"
    },
    {
      "inputs": [],
      "name": "TransferFromIncorrectOwner",
      "type": "error"
    },
    {
      "inputs": [],
      "name": "TransferToNonERC721ReceiverImplementer",
      "type": "error"
    },
    {
      "inputs": [],
      "name": "TransferToZeroAddress",
      "type": "error"
    },
    {
      "inputs": [],
      "name": "URIQueryForNonexistentToken",
      "type": "error"
    },
    {
      "anonymous": false,
      "inputs": [
        {
          "indexed": true,
          "internalType": "address",
          "name": "owner",
          "type": "address"
        },
        {
          "indexed": true,
          "internalType": "address",
          "name": "approved",
          "type": "address"
        },
        {
          "indexed": true,
          "internalType": "uint256",
          "name": "tokenId",
          "type": "uint256"
        }
      ],
      "name": "Approval",
      "type": "event"
    },
    {
      "anonymous": false,
      "inputs": [
        {
          "indexed": true,
          "internalType": "address",
          "name": "owner",
          "type": "address"
        },
        {
          "indexed": true,
          "internalType": "address",
          "name": "operator",
          "type": "address"
        },
        {
          "indexed": false,
          "internalType": "bool",
          "name": "approved",
          "type": "bool"
        }
      ],
      "name": "ApprovalForAll",
      "type": "event"
    },
    {
      "anonymous": false,
      "inputs": [
        {
          "indexed": true,
          "internalType": "address",
          "name": "previousOwner",
          "type": "address"
        },
        {
          "indexed": true,
          "internalType": "address",
          "name": "newOwner",
          "type": "address"
        }
      ],
      "name": "OwnershipTransferred",
      "type": "event"
    },
    {
      "anonymous": false,
      "inputs": [
        {
          "indexed": true,
          "internalType": "address",
          "name": "from",
          "type": "address"
        },
        {
          "indexed": true,
          "internalType": "address",
          "name": "to",
          "type": "address"
        },
        {
          "indexed": true,
          "internalType": "uint256",
          "name": "tokenId",
          "type": "uint256"
        }
      ],
      "name": "Transfer",
      "type": "event"
    },
    {
      "inputs": [],
      "name": "MAX_PUBLIC_MINT",
      "outputs": [
        {
          "internalType": "uint256",
          "name": "",
          "type": "uint256"
        }
      ],
      "stateMutability": "view",
      "type": "function"
    },
    {
      "inputs": [],
      "name": "MAX_SUPPLY",
      "outputs": [
        {
          "internalType": "uint256",
          "name": "",
          "type": "uint256"
        }
      ],
      "stateMutability": "view",
      "type": "function"
    },
    {
      "inputs": [],
      "name": "MAX_WHITELIST_MINT",
      "outputs": [
        {
          "internalType": "uint256",
          "name": "",
          "type": "uint256"
        }
      ],
      "stateMutability": "view",
      "type": "function"
    },
    {
      "inputs": [],
      "name": "PUBLIC_SALE_PRICE",
      "outputs": [
        {
          "internalType": "uint256",
          "name": "",
          "type": "uint256"
        }
      ],
      "stateMutability": "view",
      "type": "function"
    },
    {
      "inputs": [],
      "name": "WHITELIST_SALE_PRICE",
      "outputs": [
        {
          "internalType": "uint256",
          "name": "",
          "type": "uint256"
        }
      ],
      "stateMutability": "view",
      "type": "function"
    },
    {
      "inputs": [
        {
          "internalType": "address",
          "name": "to",
          "type": "address"
        },
        {
          "internalType": "uint256",
          "name": "tokenId",
          "type": "uint256"
        }
      ],
      "name": "approve",
      "outputs": [],
      "stateMutability": "nonpayable",
      "type": "function"
    },
    {
      "inputs": [
        {
          "internalType": "address",
          "name": "owner",
          "type": "address"
        }
      ],
      "name": "balanceOf",
      "outputs": [
        {
          "internalType": "uint256",
          "name": "",
          "type": "uint256"
        }
      ],
      "stateMutability": "view",
      "type": "function"
    },
    {
      "inputs": [
        {
          "internalType": "uint256",
          "name": "_quantity",
          "type": "uint256"
        }
      ],
      "name": "burn",
      "outputs": [],
      "stateMutability": "nonpayable",
      "type": "function"
    },
    {
      "inputs": [
        {
          "internalType": "uint256",
          "name": "tokenId",
          "type": "uint256"
        }
      ],
      "name": "getApproved",
      "outputs": [
        {
          "internalType": "address",
          "name": "",
          "type": "address"
        }
      ],
      "stateMutability": "view",
      "type": "function"
    },
    {
      "inputs": [],
      "name": "getJackAddress",
      "outputs": [
        {
          "internalType": "address",
          "name": "",
          "type": "address"
        }
      ],
      "stateMutability": "view",
      "type": "function"
    },
    {
      "inputs": [],
      "name": "getMerkleRoot",
      "outputs": [
        {
          "internalType": "bytes32",
          "name": "",
          "type": "bytes32"
        }
      ],
      "stateMutability": "view",
      "type": "function"
    },
    {
      "inputs": [],
      "name": "initialize",
      "outputs": [],
      "stateMutability": "nonpayable",
      "type": "function"
    },
    {
      "inputs": [
        {
          "internalType": "address",
          "name": "owner",
          "type": "address"
        },
        {
          "internalType": "address",
          "name": "operator",
          "type": "address"
        }
      ],
      "name": "isApprovedForAll",
      "outputs": [
        {
          "internalType": "bool",
          "name": "",
          "type": "bool"
        }
      ],
      "stateMutability": "view",
      "type": "function"
    },
    {
      "inputs": [],
      "name": "isRevealed",
      "outputs": [
        {
          "internalType": "bool",
          "name": "",
          "type": "bool"
        }
      ],
      "stateMutability": "view",
      "type": "function"
    },
    {
      "inputs": [
        {
          "internalType": "uint256",
          "name": "_quantity",
          "type": "uint256"
        }
      ],
      "name": "mint",
      "outputs": [],
      "stateMutability": "payable",
      "type": "function"
    },
    {
      "inputs": [],
      "name": "name",
      "outputs": [
        {
          "internalType": "string",
          "name": "",
          "type": "string"
        }
      ],
      "stateMutability": "view",
      "type": "function"
    },
    {
      "inputs": [],
      "name": "owner",
      "outputs": [
        {
          "internalType": "address",
          "name": "",
          "type": "address"
        }
      ],
      "stateMutability": "view",
      "type": "function"
    },
    {
      "inputs": [
        {
          "internalType": "uint256",
          "name": "tokenId",
          "type": "uint256"
        }
      ],
      "name": "ownerOf",
      "outputs": [
        {
          "internalType": "address",
          "name": "",
          "type": "address"
        }
      ],
      "stateMutability": "view",
      "type": "function"
    },
    {
      "inputs": [],
      "name": "publicSale",
      "outputs": [
        {
          "internalType": "bool",
          "name": "",
          "type": "bool"
        }
      ],
      "stateMutability": "view",
      "type": "function"
    },
    {
      "inputs": [],
      "name": "renounceOwnership",
      "outputs": [],
      "stateMutability": "nonpayable",
      "type": "function"
    },
    {
      "inputs": [
        {
          "internalType": "address",
          "name": "from",
          "type": "address"
        },
        {
          "internalType": "address",
          "name": "to",
          "type": "address"
        },
        {
          "internalType": "uint256",
          "name": "tokenId",
          "type": "uint256"
        }
      ],
      "name": "safeTransferFrom",
      "outputs": [],
      "stateMutability": "nonpayable",
      "type": "function"
    },
    {
      "inputs": [
        {
          "internalType": "address",
          "name": "from",
          "type": "address"
        },
        {
          "internalType": "address",
          "name": "to",
          "type": "address"
        },
        {
          "internalType": "uint256",
          "name": "tokenId",
          "type": "uint256"
        },
        {
          "internalType": "bytes",
          "name": "_data",
          "type": "bytes"
        }
      ],
      "name": "safeTransferFrom",
      "outputs": [],
      "stateMutability": "nonpayable",
      "type": "function"
    },
    {
      "inputs": [
        {
          "internalType": "address",
          "name": "operator",
          "type": "address"
        },
        {
          "internalType": "bool",
          "name": "approved",
          "type": "bool"
        }
      ],
      "name": "setApprovalForAll",
      "outputs": [],
      "stateMutability": "nonpayable",
      "type": "function"
    },
    {
      "inputs": [
        {
          "internalType": "address",
          "name": "_jack_address",
          "type": "address"
        }
      ],
      "name": "setJackAddress",
      "outputs": [],
      "stateMutability": "nonpayable",
      "type": "function"
    },
    {
      "inputs": [
        {
          "internalType": "bytes32",
          "name": "_merkleRoot",
          "type": "bytes32"
        }
      ],
      "name": "setMerkleRoot",
      "outputs": [],
      "stateMutability": "nonpayable",
      "type": "function"
    },
    {
      "inputs": [
        {
          "internalType": "string",
          "name": "_baseTokenUri",
          "type": "string"
        }
      ],
      "name": "setTokenUri",
      "outputs": [],
      "stateMutability": "nonpayable",
      "type": "function"
    },
    {
      "inputs": [
        {
          "internalType": "bytes4",
          "name": "interfaceId",
          "type": "bytes4"
        }
      ],
      "name": "supportsInterface",
      "outputs": [
        {
          "internalType": "bool",
          "name": "",
          "type": "bool"
        }
      ],
      "stateMutability": "view",
      "type": "function"
    },
    {
      "inputs": [],
      "name": "symbol",
      "outputs": [
        {
          "internalType": "string",
          "name": "",
          "type": "string"
        }
      ],
      "stateMutability": "view",
      "type": "function"
    },
    {
      "inputs": [],
      "name": "togglePublicSale",
      "outputs": [],
      "stateMutability": "nonpayable",
      "type": "function"
    },
    {
      "inputs": [],
      "name": "toggleReveal",
      "outputs": [],
      "stateMutability": "nonpayable",
      "type": "function"
    },
    {
      "inputs": [],
      "name": "toggleWhiteListSale",
      "outputs": [],
      "stateMutability": "nonpayable",
      "type": "function"
    },
    {
      "inputs": [
        {
          "internalType": "address",
          "name": "owner",
          "type": "address"
        }
      ],
      "name": "tokenIdsOfOwner",
      "outputs": [
        {
          "internalType": "uint256[]",
          "name": "",
          "type": "uint256[]"
        }
      ],
      "stateMutability": "view",
      "type": "function"
    },
    {
      "inputs": [
        {
          "internalType": "uint256",
          "name": "tokenId",
          "type": "uint256"
        }
      ],
      "name": "tokenURI",
      "outputs": [
        {
          "internalType": "string",
          "name": "",
          "type": "string"
        }
      ],
      "stateMutability": "view",
      "type": "function"
    },
    {
      "inputs": [
        {
          "internalType": "address",
          "name": "owner",
          "type": "address"
        }
      ],
      "name": "tokensBurntBy",
      "outputs": [
        {
          "internalType": "uint256",
          "name": "",
          "type": "uint256"
        }
      ],
      "stateMutability": "view",
      "type": "function"
    },
    {
      "inputs": [
        {
          "internalType": "address",
          "name": "owner",
          "type": "address"
        }
      ],
      "name": "tokensMintedtBy",
      "outputs": [
        {
          "internalType": "uint256",
          "name": "",
          "type": "uint256"
        }
      ],
      "stateMutability": "view",
      "type": "function"
    },
    {
      "inputs": [],
      "name": "totalSupply",
      "outputs": [
        {
          "internalType": "uint256",
          "name": "",
          "type": "uint256"
        }
      ],
      "stateMutability": "view",
      "type": "function"
    },
    {
      "inputs": [
        {
          "internalType": "address",
          "name": "from",
          "type": "address"
        },
        {
          "internalType": "address",
          "name": "to",
          "type": "address"
        },
        {
          "internalType": "uint256",
          "name": "tokenId",
          "type": "uint256"
        }
      ],
      "name": "transferFrom",
      "outputs": [],
      "stateMutability": "nonpayable",
      "type": "function"
    },
    {
      "inputs": [
        {
          "internalType": "address",
          "name": "newOwner",
          "type": "address"
        }
      ],
      "name": "transferOwnership",
      "outputs": [],
      "stateMutability": "nonpayable",
      "type": "function"
    },
    {
      "inputs": [],
      "name": "version",
      "outputs": [
        {
          "internalType": "string",
          "name": "",
          "type": "string"
        }
      ],
      "stateMutability": "pure",
      "type": "function"
    },
    {
      "inputs": [],
      "name": "whiteListSale",
      "outputs": [
        {
          "internalType": "bool",
          "name": "",
          "type": "bool"
        }
      ],
      "stateMutability": "view",
      "type": "function"
    },
    {
      "inputs": [
        {
          "internalType": "bytes32[]",
          "name": "_merkleProof",
          "type": "bytes32[]"
        },
        {
          "internalType": "uint256",
          "name": "_quantity",
          "type": "uint256"
        }
      ],
      "name": "whitelistMint",
      "outputs": [],
      "stateMutability": "payable",
      "type": "function"
    },
    {
      "inputs": [],
      "name": "withdraw",
      "outputs": [],
      "stateMutability": "nonpayable",
      "type": "function"
    }
  ],
  "bytecode": "0x608060405234801561001057600080fd5b506151f9806100206000396000f3fe6080604052600436106102515760003560e01c80636a5468fb116101395780639f26c10d116100b6578063c08dfd3c1161007a578063c08dfd3c1461084e578063c87b56dd14610879578063df33b587146108b6578063e222c7f9146108df578063e985e9c5146108f6578063f2fde38b1461093357610251565b80639f26c10d14610778578063a0712d68146107b5578063a22cb465146107d1578063b88d4fde146107fa578063bc912e1a1461082357610251565b806386a173ee116100fd57806386a173ee146106a35780638bb64a8c146106ce5780638da5cb5b146106e557806395d89b41146107105780639e59e5981461073b57610251565b80636a5468fb146105d257806370a082311461060f578063715018a61461064c5780637cb64759146106635780638129fc1c1461068c57610251565b806332cb6b0c116101d2578063495906571161019657806349590657146104d257806354214f69146104fd57806354fd4d50146105285780635b8ad429146105535780636352211e1461056a57806365f13097146105a757610251565b806332cb6b0c1461041357806333bc1c5c1461043e5780633ccfd60b1461046957806342842e0e1461048057806342966c68146104a957610251565b8063095ea7b311610219578063095ea7b31461034f57806318160ddd1461037857806323b872dd146103a357806324aba799146103cc5780632904e6d9146103f757610251565b806301ffc9a7146102565780630675b7c61461029357806306fdde03146102bc57806307e89ec0146102e7578063081812fc14610312575b600080fd5b34801561026257600080fd5b5061027d60048036038101906102789190614105565b61095c565b60405161028a919061463a565b60405180910390f35b34801561029f57600080fd5b506102ba60048036038101906102b59190614157565b610a3e565b005b3480156102c857600080fd5b506102d1610ad4565b6040516102de9190614670565b60405180910390f35b3480156102f357600080fd5b506102fc610b66565b6040516103099190614872565b60405180910390f35b34801561031e57600080fd5b5061033960048036038101906103349190614198565b610b71565b6040516103469190614588565b60405180910390f35b34801561035b57600080fd5b506103766004803603810190610371919061404c565b610bed565b005b34801561038457600080fd5b5061038d610cf8565b60405161039a9190614872565b60405180910390f35b3480156103af57600080fd5b506103ca60048036038101906103c59190613f46565b610d0f565b005b3480156103d857600080fd5b506103e1610d1f565b6040516103ee9190614588565b60405180910390f35b610411600480360381019061040c9190614088565b610d49565b005b34801561041f57600080fd5b50610428610f8f565b6040516104359190614872565b60405180910390f35b34801561044a57600080fd5b50610453610f95565b604051610460919061463a565b60405180910390f35b34801561047557600080fd5b5061047e610fa8565b005b34801561048c57600080fd5b506104a760048036038101906104a29190613f46565b61106d565b005b3480156104b557600080fd5b506104d060048036038101906104cb9190614198565b61108d565b005b3480156104de57600080fd5b506104e76111eb565b6040516104f49190614655565b60405180910390f35b34801561050957600080fd5b506105126111f5565b60405161051f919061463a565b60405180910390f35b34801561053457600080fd5b5061053d611208565b60405161054a9190614670565b60405180910390f35b34801561055f57600080fd5b50610568611245565b005b34801561057657600080fd5b50610591600480360381019061058c9190614198565b6112ed565b60405161059e9190614588565b60405180910390f35b3480156105b357600080fd5b506105bc611303565b6040516105c99190614872565b60405180910390f35b3480156105de57600080fd5b506105f960048036038101906105f49190613ee1565b611308565b6040516106069190614872565b60405180910390f35b34801561061b57600080fd5b5061063660048036038101906106319190613ee1565b61131a565b6040516106439190614872565b60405180910390f35b34801561065857600080fd5b506106616113ea565b005b34801561066f57600080fd5b5061068a600480360381019061068591906140dc565b611472565b005b34801561069857600080fd5b506106a16114f8565b005b3480156106af57600080fd5b506106b8611660565b6040516106c5919061463a565b60405180910390f35b3480156106da57600080fd5b506106e3611673565b005b3480156106f157600080fd5b506106fa61171b565b6040516107079190614588565b60405180910390f35b34801561071c57600080fd5b50610725611745565b6040516107329190614670565b60405180910390f35b34801561074757600080fd5b50610762600480360381019061075d9190613ee1565b6117d7565b60405161076f9190614618565b60405180910390f35b34801561078457600080fd5b5061079f600480360381019061079a9190613ee1565b611a25565b6040516107ac9190614872565b60405180910390f35b6107cf60048036038101906107ca9190614198565b611a37565b005b3480156107dd57600080fd5b506107f860048036038101906107f39190614010565b611c04565b005b34801561080657600080fd5b50610821600480360381019061081c9190613f95565b611d7c565b005b34801561082f57600080fd5b50610838611df8565b6040516108459190614872565b60405180910390f35b34801561085a57600080fd5b50610863611e03565b6040516108709190614872565b60405180910390f35b34801561088557600080fd5b506108a0600480360381019061089b9190614198565b611e08565b6040516108ad9190614670565b60405180910390f35b3480156108c257600080fd5b506108dd60048036038101906108d89190613ee1565b611ea7565b005b3480156108eb57600080fd5b506108f4611fa5565b005b34801561090257600080fd5b5061091d60048036038101906109189190613f0a565b61204d565b60405161092a919061463a565b60405180910390f35b34801561093f57600080fd5b5061095a60048036038101906109559190613ee1565b6120e1565b005b60007f80ac58cd000000000000000000000000000000000000000000000000000000007bffffffffffffffffffffffffffffffffffffffffffffffffffffffff1916827bffffffffffffffffffffffffffffffffffffffffffffffffffffffff19161480610a2757507f5b5e139f000000000000000000000000000000000000000000000000000000007bffffffffffffffffffffffffffffffffffffffffffffffffffffffff1916827bffffffffffffffffffffffffffffffffffffffffffffffffffffffff1916145b80610a375750610a36826121d9565b5b9050919050565b610a46612243565b73ffffffffffffffffffffffffffffffffffffffff16610a6461171b565b73ffffffffffffffffffffffffffffffffffffffff1614610aba576040517f08c379a0000000000000000000000000000000000000000000000000000000008152600401610ab1906147b2565b60405180910390fd5b8060fd9080519060200190610ad0929190613c17565b5050565b606060678054610ae390614b91565b80601f0160208091040260200160405190810160405280929190818152602001828054610b0f90614b91565b8015610b5c5780601f10610b3157610100808354040283529160200191610b5c565b820191906000526020600020905b815481529060010190602001808311610b3f57829003601f168201915b5050505050905090565b661ff973cafa800081565b6000610b7c8261224b565b610bb2576040517fcf4700e400000000000000000000000000000000000000000000000000000000815260040160405180910390fd5b606b600083815260200190815260200160002060009054906101000a900473ffffffffffffffffffffffffffffffffffffffff169050919050565b6000610bf8826112ed565b90508073ffffffffffffffffffffffffffffffffffffffff168373ffffffffffffffffffffffffffffffffffffffff161415610c60576040517f943f7b8c00000000000000000000000000000000000000000000000000000000815260040160405180910390fd5b8073ffffffffffffffffffffffffffffffffffffffff16610c7f612243565b73ffffffffffffffffffffffffffffffffffffffff1614158015610cb15750610caf81610caa612243565b61204d565b155b15610ce8576040517fcfb3b94200000000000000000000000000000000000000000000000000000000815260040160405180910390fd5b610cf3838383612299565b505050565b6000610d0261234b565b6066546065540303905090565b610d1a838383612350565b505050565b600060fe60009054906101000a900473ffffffffffffffffffffffffffffffffffffffff16905090565b3373ffffffffffffffffffffffffffffffffffffffff163273ffffffffffffffffffffffffffffffffffffffff1614610db7576040517f08c379a0000000000000000000000000000000000000000000000000000000008152600401610dae90614712565b60405180910390fd5b60fb60029054906101000a900460ff16610e06576040517f08c379a0000000000000000000000000000000000000000000000000000000008152600401610dfd90614792565b60405180910390fd5b611e6181610e12610cf8565b610e1c91906149bc565b1115610e5d576040517f08c379a0000000000000000000000000000000000000000000000000000000008152600401610e5490614752565b60405180910390fd5b600381610e6933612806565b610e7391906149bc565b1115610eb4576040517f08c379a0000000000000000000000000000000000000000000000000000000008152600401610eab906146f2565b60405180910390fd5b8066071afd498d0000610ec79190614a43565b341015610f09576040517f08c379a0000000000000000000000000000000000000000000000000000000008152600401610f0090614832565b60405180910390fd5b600033604051602001610f1c9190614549565b604051602081830303815290604052805190602001209050610f418360fc5483612870565b610f80576040517f08c379a0000000000000000000000000000000000000000000000000000000008152600401610f7790614772565b60405180910390fd5b610f8a3383612887565b505050565b611e6181565b60fb60019054906101000a900460ff1681565b610fb0612243565b73ffffffffffffffffffffffffffffffffffffffff16610fce61171b565b73ffffffffffffffffffffffffffffffffffffffff1614611024576040517f08c379a000000000000000000000000000000000000000000000000000000000815260040161101b906147b2565b60405180910390fd5b3373ffffffffffffffffffffffffffffffffffffffff166108fc479081150290604051600060405180830381858888f1935050505015801561106a573d6000803e3d6000fd5b50565b61108883838360405180602001604052806000815250611d7c565b505050565b3373ffffffffffffffffffffffffffffffffffffffff163273ffffffffffffffffffffffffffffffffffffffff16146110fb576040517f08c379a00000000000000000000000000000000000000000000000000000000081526004016110f290614712565b60405180910390fd5b6000611106336117d7565b9050816111123361131a565b1015611153576040517f08c379a000000000000000000000000000000000000000000000000000000000815260040161114a906147d2565b60405180910390fd5b60005b828110156111bc576111a982828151811061119a577f4e487b7100000000000000000000000000000000000000000000000000000000600052603260045260246000fd5b602002602001015160016128a5565b80806111b490614bf4565b915050611156565b506111de60405180606001604052806027815260200161519d60279139612c95565b6111e782612d2e565b5050565b600060fc54905090565b60fb60009054906101000a900460ff1681565b60606040518060400160405280600581526020017f312e302e30000000000000000000000000000000000000000000000000000000815250905090565b61124d612243565b73ffffffffffffffffffffffffffffffffffffffff1661126b61171b565b73ffffffffffffffffffffffffffffffffffffffff16146112c1576040517f08c379a00000000000000000000000000000000000000000000000000000000081526004016112b8906147b2565b60405180910390fd5b60fb60009054906101000a900460ff161560fb60006101000a81548160ff021916908315150217905550565b60006112f882612dc6565b600001519050919050565b600a81565b600061131382612806565b9050919050565b60008073ffffffffffffffffffffffffffffffffffffffff168273ffffffffffffffffffffffffffffffffffffffff161415611382576040517f8f4eb60400000000000000000000000000000000000000000000000000000000815260040160405180910390fd5b606a60008373ffffffffffffffffffffffffffffffffffffffff1673ffffffffffffffffffffffffffffffffffffffff16815260200190815260200160002060000160009054906101000a900467ffffffffffffffff1667ffffffffffffffff169050919050565b6113f2612243565b73ffffffffffffffffffffffffffffffffffffffff1661141061171b565b73ffffffffffffffffffffffffffffffffffffffff1614611466576040517f08c379a000000000000000000000000000000000000000000000000000000000815260040161145d906147b2565b60405180910390fd5b6114706000613055565b565b61147a612243565b73ffffffffffffffffffffffffffffffffffffffff1661149861171b565b73ffffffffffffffffffffffffffffffffffffffff16146114ee576040517f08c379a00000000000000000000000000000000000000000000000000000000081526004016114e5906147b2565b60405180910390fd5b8060fc8190555050565b600060019054906101000a900460ff166115205760008054906101000a900460ff1615611529565b61152861311b565b5b611568576040517f08c379a000000000000000000000000000000000000000000000000000000000815260040161155f90614732565b60405180910390fd5b60008060019054906101000a900460ff1615905080156115b8576001600060016101000a81548160ff02191690831515021790555060016000806101000a81548160ff0219169083151502179055505b61162c6040518060400160405280600381526020017f426f7800000000000000000000000000000000000000000000000000000000008152506040518060400160405280600381526020017f424f58000000000000000000000000000000000000000000000000000000000081525061312c565b611634613189565b61163c6131e2565b801561165d5760008060016101000a81548160ff0219169083151502179055505b50565b60fb60029054906101000a900460ff1681565b61167b612243565b73ffffffffffffffffffffffffffffffffffffffff1661169961171b565b73ffffffffffffffffffffffffffffffffffffffff16146116ef576040517f08c379a00000000000000000000000000000000000000000000000000000000081526004016116e6906147b2565b60405180910390fd5b60fb60029054906101000a900460ff161560fb60026101000a81548160ff021916908315150217905550565b600060c960009054906101000a900473ffffffffffffffffffffffffffffffffffffffff16905090565b60606068805461175490614b91565b80601f016020809104026020016040519081016040528092919081815260200182805461178090614b91565b80156117cd5780601f106117a2576101008083540402835291602001916117cd565b820191906000526020600020905b8154815290600101906020018083116117b057829003601f168201915b5050505050905090565b606060008060006117e78561131a565b905060008167ffffffffffffffff81111561182b577f4e487b7100000000000000000000000000000000000000000000000000000000600052604160045260246000fd5b6040519080825280602002602001820160405280156118595781602001602082028036833780820191505090505b509050611864613c9d565b600061186e61234b565b90505b838614611a1757606960008281526020019081526020016000206040518060600160405290816000820160009054906101000a900473ffffffffffffffffffffffffffffffffffffffff1673ffffffffffffffffffffffffffffffffffffffff1673ffffffffffffffffffffffffffffffffffffffff1681526020016000820160149054906101000a900467ffffffffffffffff1667ffffffffffffffff1667ffffffffffffffff16815260200160008201601c9054906101000a900460ff161515151581525050915081604001511561194a57611a0c565b600073ffffffffffffffffffffffffffffffffffffffff16826000015173ffffffffffffffffffffffffffffffffffffffff161461198a57816000015194505b8773ffffffffffffffffffffffffffffffffffffffff168573ffffffffffffffffffffffffffffffffffffffff161415611a0b57808387806001019850815181106119fe577f4e487b7100000000000000000000000000000000000000000000000000000000600052603260045260246000fd5b6020026020010181815250505b5b806001019050611871565b508195505050505050919050565b6000611a3082613233565b9050919050565b3373ffffffffffffffffffffffffffffffffffffffff163273ffffffffffffffffffffffffffffffffffffffff1614611aa5576040517f08c379a0000000000000000000000000000000000000000000000000000000008152600401611a9c90614712565b60405180910390fd5b60fb60019054906101000a900460ff16611af4576040517f08c379a0000000000000000000000000000000000000000000000000000000008152600401611aeb906146b2565b60405180910390fd5b611e6181611b00610cf8565b611b0a91906149bc565b1115611b4b576040517f08c379a0000000000000000000000000000000000000000000000000000000008152600401611b4290614852565b60405180910390fd5b600a81611b5733612806565b611b6191906149bc565b1115611ba2576040517f08c379a0000000000000000000000000000000000000000000000000000000008152600401611b9990614692565b60405180910390fd5b80661ff973cafa8000611bb59190614a43565b341015611bf7576040517f08c379a0000000000000000000000000000000000000000000000000000000008152600401611bee90614812565b60405180910390fd5b611c013382612887565b50565b611c0c612243565b73ffffffffffffffffffffffffffffffffffffffff168273ffffffffffffffffffffffffffffffffffffffff161415611c71576040517fb06307db00000000000000000000000000000000000000000000000000000000815260040160405180910390fd5b80606c6000611c7e612243565b73ffffffffffffffffffffffffffffffffffffffff1673ffffffffffffffffffffffffffffffffffffffff16815260200190815260200160002060008473ffffffffffffffffffffffffffffffffffffffff1673ffffffffffffffffffffffffffffffffffffffff16815260200190815260200160002060006101000a81548160ff0219169083151502179055508173ffffffffffffffffffffffffffffffffffffffff16611d2b612243565b73ffffffffffffffffffffffffffffffffffffffff167f17307eab39ab6107e8899845ad3d59bd9653f200f220920489ca2b5937696c3183604051611d70919061463a565b60405180910390a35050565b611d87848484612350565b611da68373ffffffffffffffffffffffffffffffffffffffff1661329d565b8015611dbb5750611db9848484846132c0565b155b15611df2576040517fd1a57ed600000000000000000000000000000000000000000000000000000000815260040160405180910390fd5b50505050565b66071afd498d000081565b600381565b6060611e138261224b565b611e49576040517fa14c4b5000000000000000000000000000000000000000000000000000000000815260040160405180910390fd5b6000611e53613420565b9050600081511415611e745760405180602001604052806000815250611e9f565b80611e7e846134b2565b604051602001611e8f929190614564565b6040516020818303038152906040525b915050919050565b611eaf612243565b73ffffffffffffffffffffffffffffffffffffffff16611ecd61171b565b73ffffffffffffffffffffffffffffffffffffffff1614611f23576040517f08c379a0000000000000000000000000000000000000000000000000000000008152600401611f1a906147b2565b60405180910390fd5b611f616040518060400160405280600e81526020017f7365744a61636b41646472657373000000000000000000000000000000000000815250612c95565b8060fe60006101000a81548173ffffffffffffffffffffffffffffffffffffffff021916908373ffffffffffffffffffffffffffffffffffffffff16021790555050565b611fad612243565b73ffffffffffffffffffffffffffffffffffffffff16611fcb61171b565b73ffffffffffffffffffffffffffffffffffffffff1614612021576040517f08c379a0000000000000000000000000000000000000000000000000000000008152600401612018906147b2565b60405180910390fd5b60fb60019054906101000a900460ff161560fb60016101000a81548160ff021916908315150217905550565b6000606c60008473ffffffffffffffffffffffffffffffffffffffff1673ffffffffffffffffffffffffffffffffffffffff16815260200190815260200160002060008373ffffffffffffffffffffffffffffffffffffffff1673ffffffffffffffffffffffffffffffffffffffff16815260200190815260200160002060009054906101000a900460ff16905092915050565b6120e9612243565b73ffffffffffffffffffffffffffffffffffffffff1661210761171b565b73ffffffffffffffffffffffffffffffffffffffff161461215d576040517f08c379a0000000000000000000000000000000000000000000000000000000008152600401612154906147b2565b60405180910390fd5b600073ffffffffffffffffffffffffffffffffffffffff168173ffffffffffffffffffffffffffffffffffffffff1614156121cd576040517f08c379a00000000000000000000000000000000000000000000000000000000081526004016121c4906146d2565b60405180910390fd5b6121d681613055565b50565b60007f01ffc9a7000000000000000000000000000000000000000000000000000000007bffffffffffffffffffffffffffffffffffffffffffffffffffffffff1916827bffffffffffffffffffffffffffffffffffffffffffffffffffffffff1916149050919050565b600033905090565b60008161225661234b565b11158015612265575060655482105b8015612292575060696000838152602001908152602001600020600001601c9054906101000a900460ff16155b9050919050565b82606b600084815260200190815260200160002060006101000a81548173ffffffffffffffffffffffffffffffffffffffff021916908373ffffffffffffffffffffffffffffffffffffffff160217905550818373ffffffffffffffffffffffffffffffffffffffff168273ffffffffffffffffffffffffffffffffffffffff167f8c5be1e5ebec7d5bd14f71427d1e84f3dd0314c0f7b2291e5b200ac8c7c3b92560405160405180910390a4505050565b600090565b600061235b82612dc6565b90508373ffffffffffffffffffffffffffffffffffffffff16816000015173ffffffffffffffffffffffffffffffffffffffff16146123c6576040517fa114810000000000000000000000000000000000000000000000000000000000815260040160405180910390fd5b60008473ffffffffffffffffffffffffffffffffffffffff166123e7612243565b73ffffffffffffffffffffffffffffffffffffffff161480612416575061241585612410612243565b61204d565b5b8061245b5750612424612243565b73ffffffffffffffffffffffffffffffffffffffff1661244384610b71565b73ffffffffffffffffffffffffffffffffffffffff16145b905080612494576040517f59c896be00000000000000000000000000000000000000000000000000000000815260040160405180910390fd5b600073ffffffffffffffffffffffffffffffffffffffff168473ffffffffffffffffffffffffffffffffffffffff1614156124fb576040517fea553b3400000000000000000000000000000000000000000000000000000000815260040160405180910390fd5b612508858585600161365f565b61251460008487612299565b6001606a60008773ffffffffffffffffffffffffffffffffffffffff1673ffffffffffffffffffffffffffffffffffffffff16815260200190815260200160002060000160008282829054906101000a900467ffffffffffffffff160392506101000a81548167ffffffffffffffff021916908367ffffffffffffffff1602179055506001606a60008673ffffffffffffffffffffffffffffffffffffffff1673ffffffffffffffffffffffffffffffffffffffff16815260200190815260200160002060000160008282829054906101000a900467ffffffffffffffff160192506101000a81548167ffffffffffffffff021916908367ffffffffffffffff1602179055506000606960008581526020019081526020016000209050848160000160006101000a81548173ffffffffffffffffffffffffffffffffffffffff021916908373ffffffffffffffffffffffffffffffffffffffff160217905550428160000160146101000a81548167ffffffffffffffff021916908367ffffffffffffffff16021790555060006001850190506000606960008381526020019081526020016000209050600073ffffffffffffffffffffffffffffffffffffffff168160000160009054906101000a900473ffffffffffffffffffffffffffffffffffffffff1673ffffffffffffffffffffffffffffffffffffffff16141561279457606554821461279357878160000160006101000a81548173ffffffffffffffffffffffffffffffffffffffff021916908373ffffffffffffffffffffffffffffffffffffffff16021790555084602001518160000160146101000a81548167ffffffffffffffff021916908367ffffffffffffffff1602179055505b5b505050828473ffffffffffffffffffffffffffffffffffffffff168673ffffffffffffffffffffffffffffffffffffffff167fddf252ad1be2c89b69c2b068fc378daa952ba7f163c4a11628f55a4df523b3ef60405160405180910390a46127ff8585856001613665565b5050505050565b6000606a60008373ffffffffffffffffffffffffffffffffffffffff1673ffffffffffffffffffffffffffffffffffffffff16815260200190815260200160002060000160089054906101000a900467ffffffffffffffff1667ffffffffffffffff169050919050565b60008261287d858461366b565b1490509392505050565b6128a1828260405180602001604052806000815250613706565b5050565b60006128b083612dc6565b905060008160000151905082156129915760008173ffffffffffffffffffffffffffffffffffffffff166128e2612243565b73ffffffffffffffffffffffffffffffffffffffff16148061291157506129108261290b612243565b61204d565b5b80612956575061291f612243565b73ffffffffffffffffffffffffffffffffffffffff1661293e86610b71565b73ffffffffffffffffffffffffffffffffffffffff16145b90508061298f576040517f59c896be00000000000000000000000000000000000000000000000000000000815260040160405180910390fd5b505b61299f81600086600161365f565b6129ab60008583612299565b6000606a60008373ffffffffffffffffffffffffffffffffffffffff1673ffffffffffffffffffffffffffffffffffffffff168152602001908152602001600020905060018160000160008282829054906101000a900467ffffffffffffffff160392506101000a81548167ffffffffffffffff021916908367ffffffffffffffff16021790555060018160000160108282829054906101000a900467ffffffffffffffff160192506101000a81548167ffffffffffffffff021916908367ffffffffffffffff1602179055506000606960008781526020019081526020016000209050828160000160006101000a81548173ffffffffffffffffffffffffffffffffffffffff021916908373ffffffffffffffffffffffffffffffffffffffff160217905550428160000160146101000a81548167ffffffffffffffff021916908367ffffffffffffffff160217905550600181600001601c6101000a81548160ff02191690831515021790555060006001870190506000606960008381526020019081526020016000209050600073ffffffffffffffffffffffffffffffffffffffff168160000160009054906101000a900473ffffffffffffffffffffffffffffffffffffffff1673ffffffffffffffffffffffffffffffffffffffff161415612c0f576065548214612c0e57848160000160006101000a81548173ffffffffffffffffffffffffffffffffffffffff021916908373ffffffffffffffffffffffffffffffffffffffff16021790555085602001518160000160146101000a81548167ffffffffffffffff021916908367ffffffffffffffff1602179055505b5b5050505083600073ffffffffffffffffffffffffffffffffffffffff168273ffffffffffffffffffffffffffffffffffffffff167fddf252ad1be2c89b69c2b068fc378daa952ba7f163c4a11628f55a4df523b3ef60405160405180910390a4612c7d816000866001613665565b60666000815480929190600101919050555050505050565b612d2b81604051602401612ca99190614670565b6040516020818303038152906040527f41304fac000000000000000000000000000000000000000000000000000000007bffffffffffffffffffffffffffffffffffffffffffffffffffffffff19166020820180517bffffffffffffffffffffffffffffffffffffffffffffffffffffffff8381831617835250505050613718565b50565b600060fe60009054906101000a900473ffffffffffffffffffffffffffffffffffffffff1690508073ffffffffffffffffffffffffffffffffffffffff166340c10f1933846040518363ffffffff1660e01b8152600401612d909291906145ef565b600060405180830381600087803b158015612daa57600080fd5b505af1158015612dbe573d6000803e3d6000fd5b505050505050565b612dce613c9d565b600082905080612ddc61234b565b11158015612deb575060655481105b1561301e576000606960008381526020019081526020016000206040518060600160405290816000820160009054906101000a900473ffffffffffffffffffffffffffffffffffffffff1673ffffffffffffffffffffffffffffffffffffffff1673ffffffffffffffffffffffffffffffffffffffff1681526020016000820160149054906101000a900467ffffffffffffffff1667ffffffffffffffff1667ffffffffffffffff16815260200160008201601c9054906101000a900460ff1615151515815250509050806040015161301c57600073ffffffffffffffffffffffffffffffffffffffff16816000015173ffffffffffffffffffffffffffffffffffffffff1614612f00578092505050613050565b5b60011561301b57818060019003925050606960008381526020019081526020016000206040518060600160405290816000820160009054906101000a900473ffffffffffffffffffffffffffffffffffffffff1673ffffffffffffffffffffffffffffffffffffffff1673ffffffffffffffffffffffffffffffffffffffff1681526020016000820160149054906101000a900467ffffffffffffffff1667ffffffffffffffff1667ffffffffffffffff16815260200160008201601c9054906101000a900460ff1615151515815250509050600073ffffffffffffffffffffffffffffffffffffffff16816000015173ffffffffffffffffffffffffffffffffffffffff1614613016578092505050613050565b612f01565b5b505b6040517fdf2d9b4200000000000000000000000000000000000000000000000000000000815260040160405180910390fd5b919050565b600060c960009054906101000a900473ffffffffffffffffffffffffffffffffffffffff1690508160c960006101000a81548173ffffffffffffffffffffffffffffffffffffffff021916908373ffffffffffffffffffffffffffffffffffffffff1602179055508173ffffffffffffffffffffffffffffffffffffffff168173ffffffffffffffffffffffffffffffffffffffff167f8be0079c531659141344cd1fd0a4f28419497f9722a3daafe3b4186f6b6457e060405160405180910390a35050565b60006131263061329d565b15905090565b600060019054906101000a900460ff1661317b576040517f08c379a0000000000000000000000000000000000000000000000000000000008152600401613172906147f2565b60405180910390fd5b6131858282613741565b5050565b600060019054906101000a900460ff166131d8576040517f08c379a00000000000000000000000000000000000000000000000000000000081526004016131cf906147f2565b60405180910390fd5b6131e06137d0565b565b600060019054906101000a900460ff16613231576040517f08c379a0000000000000000000000000000000000000000000000000000000008152600401613228906147f2565b60405180910390fd5b565b6000606a60008373ffffffffffffffffffffffffffffffffffffffff1673ffffffffffffffffffffffffffffffffffffffff16815260200190815260200160002060000160109054906101000a900467ffffffffffffffff1667ffffffffffffffff169050919050565b6000808273ffffffffffffffffffffffffffffffffffffffff163b119050919050565b60008373ffffffffffffffffffffffffffffffffffffffff1663150b7a026132e6612243565b8786866040518563ffffffff1660e01b815260040161330894939291906145a3565b602060405180830381600087803b15801561332257600080fd5b505af192505050801561335357506040513d601f19601f82011682018060405250810190613350919061412e565b60015b6133cd573d8060008114613383576040519150601f19603f3d011682016040523d82523d6000602084013e613388565b606091505b506000815114156133c5576040517fd1a57ed600000000000000000000000000000000000000000000000000000000815260040160405180910390fd5b805181602001fd5b63150b7a0260e01b7bffffffffffffffffffffffffffffffffffffffffffffffffffffffff1916817bffffffffffffffffffffffffffffffffffffffffffffffffffffffff191614915050949350505050565b606060fd805461342f90614b91565b80601f016020809104026020016040519081016040528092919081815260200182805461345b90614b91565b80156134a85780601f1061347d576101008083540402835291602001916134a8565b820191906000526020600020905b81548152906001019060200180831161348b57829003601f168201915b5050505050905090565b606060008214156134fa576040518060400160405280600181526020017f3000000000000000000000000000000000000000000000000000000000000000815250905061365a565b600082905060005b6000821461352c57808061351590614bf4565b915050600a826135259190614a12565b9150613502565b60008167ffffffffffffffff81111561356e577f4e487b7100000000000000000000000000000000000000000000000000000000600052604160045260246000fd5b6040519080825280601f01601f1916602001820160405280156135a05781602001600182028036833780820191505090505b5090505b60008514613653576001826135b99190614a9d565b9150600a856135c89190614c61565b60306135d491906149bc565b60f81b818381518110613610577f4e487b7100000000000000000000000000000000000000000000000000000000600052603260045260246000fd5b60200101907effffffffffffffffffffffffffffffffffffffffffffffffffffffffffffff1916908160001a905350600a8561364c9190614a12565b94506135a4565b8093505050505b919050565b50505050565b50505050565b60008082905060005b84518110156136fb5760008582815181106136b8577f4e487b7100000000000000000000000000000000000000000000000000000000600052603260045260246000fd5b602002602001015190508083116136da576136d38382613831565b92506136e7565b6136e48184613831565b92505b5080806136f390614bf4565b915050613674565b508091505092915050565b6137138383836001613848565b505050565b60008151905060006a636f6e736f6c652e6c6f679050602083016000808483855afa5050505050565b600060019054906101000a900460ff16613790576040517f08c379a0000000000000000000000000000000000000000000000000000000008152600401613787906147f2565b60405180910390fd5b81606790805190602001906137a6929190613c17565b5080606890805190602001906137bd929190613c17565b506137c661234b565b6065819055505050565b600060019054906101000a900460ff1661381f576040517f08c379a0000000000000000000000000000000000000000000000000000000008152600401613816906147f2565b60405180910390fd5b61382f61382a612243565b613055565b565b600082600052816020526040600020905092915050565b60006065549050600073ffffffffffffffffffffffffffffffffffffffff168573ffffffffffffffffffffffffffffffffffffffff1614156138b6576040517f2e07630000000000000000000000000000000000000000000000000000000000815260040160405180910390fd5b60008414156138f1576040517fb562e8dd00000000000000000000000000000000000000000000000000000000815260040160405180910390fd5b6138fe600086838761365f565b83606a60008773ffffffffffffffffffffffffffffffffffffffff1673ffffffffffffffffffffffffffffffffffffffff16815260200190815260200160002060000160008282829054906101000a900467ffffffffffffffff160192506101000a81548167ffffffffffffffff021916908367ffffffffffffffff16021790555083606a60008773ffffffffffffffffffffffffffffffffffffffff1673ffffffffffffffffffffffffffffffffffffffff16815260200190815260200160002060000160088282829054906101000a900467ffffffffffffffff160192506101000a81548167ffffffffffffffff021916908367ffffffffffffffff160217905550846069600083815260200190815260200160002060000160006101000a81548173ffffffffffffffffffffffffffffffffffffffff021916908373ffffffffffffffffffffffffffffffffffffffff160217905550426069600083815260200190815260200160002060000160146101000a81548167ffffffffffffffff021916908367ffffffffffffffff160217905550600081905060008582019050838015613ac85750613ac78773ffffffffffffffffffffffffffffffffffffffff1661329d565b5b15613b8e575b818773ffffffffffffffffffffffffffffffffffffffff16600073ffffffffffffffffffffffffffffffffffffffff167fddf252ad1be2c89b69c2b068fc378daa952ba7f163c4a11628f55a4df523b3ef60405160405180910390a4613b3d60008884806001019550886132c0565b613b73576040517fd1a57ed600000000000000000000000000000000000000000000000000000000815260040160405180910390fd5b80821415613ace578260655414613b8957600080fd5b613bfa565b5b818060010192508773ffffffffffffffffffffffffffffffffffffffff16600073ffffffffffffffffffffffffffffffffffffffff167fddf252ad1be2c89b69c2b068fc378daa952ba7f163c4a11628f55a4df523b3ef60405160405180910390a480821415613b8f575b816065819055505050613c106000868387613665565b5050505050565b828054613c2390614b91565b90600052602060002090601f016020900481019282613c455760008555613c8c565b82601f10613c5e57805160ff1916838001178555613c8c565b82800160010185558215613c8c579182015b82811115613c8b578251825591602001919060010190613c70565b5b509050613c999190613ce0565b5090565b6040518060600160405280600073ffffffffffffffffffffffffffffffffffffffff168152602001600067ffffffffffffffff1681526020016000151581525090565b5b80821115613cf9576000816000905550600101613ce1565b5090565b6000613d10613d0b846148b2565b61488d565b90508083825260208201905082856020860282011115613d2f57600080fd5b60005b85811015613d5f5781613d458882613e39565b845260208401935060208301925050600181019050613d32565b5050509392505050565b6000613d7c613d77846148de565b61488d565b905082815260208101848484011115613d9457600080fd5b613d9f848285614b4f565b509392505050565b6000613dba613db58461490f565b61488d565b905082815260208101848484011115613dd257600080fd5b613ddd848285614b4f565b509392505050565b600081359050613df481615129565b92915050565b600082601f830112613e0b57600080fd5b8135613e1b848260208601613cfd565b91505092915050565b600081359050613e3381615140565b92915050565b600081359050613e4881615157565b92915050565b600081359050613e5d8161516e565b92915050565b600081519050613e728161516e565b92915050565b600082601f830112613e8957600080fd5b8135613e99848260208601613d69565b91505092915050565b600082601f830112613eb357600080fd5b8135613ec3848260208601613da7565b91505092915050565b600081359050613edb81615185565b92915050565b600060208284031215613ef357600080fd5b6000613f0184828501613de5565b91505092915050565b60008060408385031215613f1d57600080fd5b6000613f2b85828601613de5565b9250506020613f3c85828601613de5565b9150509250929050565b600080600060608486031215613f5b57600080fd5b6000613f6986828701613de5565b9350506020613f7a86828701613de5565b9250506040613f8b86828701613ecc565b9150509250925092565b60008060008060808587031215613fab57600080fd5b6000613fb987828801613de5565b9450506020613fca87828801613de5565b9350506040613fdb87828801613ecc565b925050606085013567ffffffffffffffff811115613ff857600080fd5b61400487828801613e78565b91505092959194509250565b6000806040838503121561402357600080fd5b600061403185828601613de5565b925050602061404285828601613e24565b9150509250929050565b6000806040838503121561405f57600080fd5b600061406d85828601613de5565b925050602061407e85828601613ecc565b9150509250929050565b6000806040838503121561409b57600080fd5b600083013567ffffffffffffffff8111156140b557600080fd5b6140c185828601613dfa565b92505060206140d285828601613ecc565b9150509250929050565b6000602082840312156140ee57600080fd5b60006140fc84828501613e39565b91505092915050565b60006020828403121561411757600080fd5b600061412584828501613e4e565b91505092915050565b60006020828403121561414057600080fd5b600061414e84828501613e63565b91505092915050565b60006020828403121561416957600080fd5b600082013567ffffffffffffffff81111561418357600080fd5b61418f84828501613ea2565b91505092915050565b6000602082840312156141aa57600080fd5b60006141b884828501613ecc565b91505092915050565b60006141cd838361452b565b60208301905092915050565b6141e281614ad1565b82525050565b6141f96141f482614ad1565b614c3d565b82525050565b600061420a82614950565b614214818561497e565b935061421f83614940565b8060005b8381101561425057815161423788826141c1565b975061424283614971565b925050600181019050614223565b5085935050505092915050565b61426681614ae3565b82525050565b61427581614aef565b82525050565b60006142868261495b565b614290818561498f565b93506142a0818560208601614b5e565b6142a981614d4e565b840191505092915050565b60006142bf82614966565b6142c981856149a0565b93506142d9818560208601614b5e565b6142e281614d4e565b840191505092915050565b60006142f882614966565b61430281856149b1565b9350614312818560208601614b5e565b80840191505092915050565b600061432b601f836149a0565b915061433682614d6c565b602082019050919050565b600061434e6016836149a0565b915061435982614d95565b602082019050919050565b60006143716026836149a0565b915061437c82614dbe565b604082019050919050565b6000614394602d836149a0565b915061439f82614e0d565b604082019050919050565b60006143b76025836149a0565b91506143c282614e5c565b604082019050919050565b60006143da602e836149a0565b91506143e582614eab565b604082019050919050565b60006143fd6024836149a0565b915061440882614efa565b604082019050919050565b6000614420601e836149a0565b915061442b82614f49565b602082019050919050565b6000614443601a836149a0565b915061444e82614f72565b602082019050919050565b60006144666020836149a0565b915061447182614f9b565b602082019050919050565b60006144896029836149a0565b915061449482614fc4565b604082019050919050565b60006144ac602b836149a0565b91506144b782615013565b604082019050919050565b60006144cf6022836149a0565b91506144da82615062565b604082019050919050565b60006144f26021836149a0565b91506144fd826150b1565b604082019050919050565b60006145156018836149a0565b915061452082615100565b602082019050919050565b61453481614b45565b82525050565b61454381614b45565b82525050565b600061455582846141e8565b60148201915081905092915050565b600061457082856142ed565b915061457c82846142ed565b91508190509392505050565b600060208201905061459d60008301846141d9565b92915050565b60006080820190506145b860008301876141d9565b6145c560208301866141d9565b6145d2604083018561453a565b81810360608301526145e4818461427b565b905095945050505050565b600060408201905061460460008301856141d9565b614611602083018461453a565b9392505050565b6000602082019050818103600083015261463281846141ff565b905092915050565b600060208201905061464f600083018461425d565b92915050565b600060208201905061466a600083018461426c565b92915050565b6000602082019050818103600083015261468a81846142b4565b905092915050565b600060208201905081810360008301526146ab8161431e565b9050919050565b600060208201905081810360008301526146cb81614341565b9050919050565b600060208201905081810360008301526146eb81614364565b9050919050565b6000602082019050818103600083015261470b81614387565b9050919050565b6000602082019050818103600083015261472b816143aa565b9050919050565b6000602082019050818103600083015261474b816143cd565b9050919050565b6000602082019050818103600083015261476b816143f0565b9050919050565b6000602082019050818103600083015261478b81614413565b9050919050565b600060208201905081810360008301526147ab81614436565b9050919050565b600060208201905081810360008301526147cb81614459565b9050919050565b600060208201905081810360008301526147eb8161447c565b9050919050565b6000602082019050818103600083015261480b8161449f565b9050919050565b6000602082019050818103600083015261482b816144c2565b9050919050565b6000602082019050818103600083015261484b816144e5565b9050919050565b6000602082019050818103600083015261486b81614508565b9050919050565b6000602082019050614887600083018461453a565b92915050565b60006148976148a8565b90506148a38282614bc3565b919050565b6000604051905090565b600067ffffffffffffffff8211156148cd576148cc614d1f565b5b602082029050602081019050919050565b600067ffffffffffffffff8211156148f9576148f8614d1f565b5b61490282614d4e565b9050602081019050919050565b600067ffffffffffffffff82111561492a57614929614d1f565b5b61493382614d4e565b9050602081019050919050565b6000819050602082019050919050565b600081519050919050565b600081519050919050565b600081519050919050565b6000602082019050919050565b600082825260208201905092915050565b600082825260208201905092915050565b600082825260208201905092915050565b600081905092915050565b60006149c782614b45565b91506149d283614b45565b9250827fffffffffffffffffffffffffffffffffffffffffffffffffffffffffffffffff03821115614a0757614a06614c92565b5b828201905092915050565b6000614a1d82614b45565b9150614a2883614b45565b925082614a3857614a37614cc1565b5b828204905092915050565b6000614a4e82614b45565b9150614a5983614b45565b9250817fffffffffffffffffffffffffffffffffffffffffffffffffffffffffffffffff0483118215151615614a9257614a91614c92565b5b828202905092915050565b6000614aa882614b45565b9150614ab383614b45565b925082821015614ac657614ac5614c92565b5b828203905092915050565b6000614adc82614b25565b9050919050565b60008115159050919050565b6000819050919050565b60007fffffffff0000000000000000000000000000000000000000000000000000000082169050919050565b600073ffffffffffffffffffffffffffffffffffffffff82169050919050565b6000819050919050565b82818337600083830152505050565b60005b83811015614b7c578082015181840152602081019050614b61565b83811115614b8b576000848401525b50505050565b60006002820490506001821680614ba957607f821691505b60208210811415614bbd57614bbc614cf0565b5b50919050565b614bcc82614d4e565b810181811067ffffffffffffffff82111715614beb57614bea614d1f565b5b80604052505050565b6000614bff82614b45565b91507fffffffffffffffffffffffffffffffffffffffffffffffffffffffffffffffff821415614c3257614c31614c92565b5b600182019050919050565b6000614c4882614c4f565b9050919050565b6000614c5a82614d5f565b9050919050565b6000614c6c82614b45565b9150614c7783614b45565b925082614c8757614c86614cc1565b5b828206905092915050565b7f4e487b7100000000000000000000000000000000000000000000000000000000600052601160045260246000fd5b7f4e487b7100000000000000000000000000000000000000000000000000000000600052601260045260246000fd5b7f4e487b7100000000000000000000000000000000000000000000000000000000600052602260045260246000fd5b7f4e487b7100000000000000000000000000000000000000000000000000000000600052604160045260246000fd5b6000601f19601f8301169050919050565b60008160601b9050919050565b7f426f78203a3a20416c7265616479206d696e7465642031302074696d65732100600082015250565b7f426f78203a3a204e6f7420596574204163746976652e00000000000000000000600082015250565b7f4f776e61626c653a206e6577206f776e657220697320746865207a65726f206160008201527f6464726573730000000000000000000000000000000000000000000000000000602082015250565b7f426f78203a3a2043616e6e6f74206d696e74206265796f6e642077686974656c60008201527f697374206d6178206d696e742100000000000000000000000000000000000000602082015250565b7f426f78203a3a2043616e6e6f742062652063616c6c6564206279206120636f6e60008201527f7472616374000000000000000000000000000000000000000000000000000000602082015250565b7f496e697469616c697a61626c653a20636f6e747261637420697320616c72656160008201527f647920696e697469616c697a6564000000000000000000000000000000000000602082015250565b7f426f78203a3a2043616e6e6f74206d696e74206265796f6e64206d617820737560008201527f70706c7900000000000000000000000000000000000000000000000000000000602082015250565b7f426f78203a3a20596f7520617265206e6f742077686974656c69737465640000600082015250565b7f426f78203a3a204d696e74696e67206973206f6e205061757365000000000000600082015250565b7f4f776e61626c653a2063616c6c6572206973206e6f7420746865206f776e6572600082015250565b7f426f78203a3a2043616e6e6f74206275726e6564206265796f6e64206d696e7460008201527f656420746f6b656e730000000000000000000000000000000000000000000000602082015250565b7f496e697469616c697a61626c653a20636f6e7472616374206973206e6f74206960008201527f6e697469616c697a696e67000000000000000000000000000000000000000000602082015250565b7f426f78203a3a205061796d656e742069732062656c6f7720746865207072696360008201527f6520000000000000000000000000000000000000000000000000000000000000602082015250565b7f426f78203a3a205061796d656e742069732062656c6f7720746865207072696360008201527f6500000000000000000000000000000000000000000000000000000000000000602082015250565b7f426f78203a3a204265796f6e64204d617820537570706c790000000000000000600082015250565b61513281614ad1565b811461513d57600080fd5b50565b61514981614ae3565b811461515457600080fd5b50565b61516081614aef565b811461516b57600080fd5b50565b61517781614af9565b811461518257600080fd5b50565b61518e81614b45565b811461519957600080fd5b5056fe6275726e696e6720636f6d706c65746520616e64204a61636b206d696e74696e67207374617274a264697066735822122061f2c6e9509149d694f5f59bdf1ded20ac13e549f75b13099d3022824e60577864736f6c63430008040033",
  "linkReferences": {},
  "deployedLinkReferences": {}
}